{
  "_format": "hh-sol-artifact-1",
  "contractName": "PetNFT",
  "sourceName": "contracts/PetNFT.sol",
  "abi": [
    {
      "inputs": [
        {
          "internalType": "string",
          "name": "_baseURI",
          "type": "string"
        }
      ],
      "stateMutability": "nonpayable",
      "type": "constructor"
    },
    {
      "anonymous": false,
      "inputs": [
        {
          "indexed": true,
          "internalType": "address",
          "name": "owner",
          "type": "address"
        },
        {
          "indexed": true,
          "internalType": "address",
          "name": "approved",
          "type": "address"
        },
        {
          "indexed": true,
          "internalType": "uint256",
          "name": "tokenId",
          "type": "uint256"
        }
      ],
      "name": "Approval",
      "type": "event"
    },
    {
      "anonymous": false,
      "inputs": [
        {
          "indexed": true,
          "internalType": "address",
          "name": "owner",
          "type": "address"
        },
        {
          "indexed": true,
          "internalType": "address",
          "name": "operator",
          "type": "address"
        },
        {
          "indexed": false,
          "internalType": "bool",
          "name": "approved",
          "type": "bool"
        }
      ],
      "name": "ApprovalForAll",
      "type": "event"
    },
    {
      "anonymous": false,
      "inputs": [
        {
          "indexed": true,
          "internalType": "address",
          "name": "previousOwner",
          "type": "address"
        },
        {
          "indexed": true,
          "internalType": "address",
          "name": "newOwner",
          "type": "address"
        }
      ],
      "name": "OwnershipTransferred",
      "type": "event"
    },
    {
      "anonymous": false,
      "inputs": [
        {
          "indexed": false,
          "internalType": "uint256",
          "name": "tokenId",
          "type": "uint256"
        },
        {
          "indexed": false,
          "internalType": "uint256",
          "name": "newLevel",
          "type": "uint256"
        }
      ],
      "name": "PetLevelUp",
      "type": "event"
    },
    {
      "anonymous": false,
      "inputs": [
        {
          "indexed": true,
          "internalType": "address",
          "name": "to",
          "type": "address"
        },
        {
          "indexed": false,
          "internalType": "uint256",
          "name": "tokenId",
          "type": "uint256"
        },
        {
          "components": [
            {
              "internalType": "string",
              "name": "name",
              "type": "string"
            },
            {
              "internalType": "string",
              "name": "petType",
              "type": "string"
            },
            {
              "internalType": "string",
              "name": "rarity",
              "type": "string"
            },
            {
              "internalType": "uint256",
              "name": "level",
              "type": "uint256"
            },
            {
              "internalType": "bool",
              "name": "isShiny",
              "type": "bool"
            }
          ],
          "indexed": false,
          "internalType": "struct PetNFT.PetMetadata",
          "name": "metadata",
          "type": "tuple"
        }
      ],
      "name": "PetMinted",
      "type": "event"
    },
    {
      "anonymous": false,
      "inputs": [
        {
          "indexed": true,
          "internalType": "address",
          "name": "from",
          "type": "address"
        },
        {
          "indexed": true,
          "internalType": "address",
          "name": "to",
          "type": "address"
        },
        {
          "indexed": true,
          "internalType": "uint256",
          "name": "tokenId",
          "type": "uint256"
        }
      ],
      "name": "Transfer",
      "type": "event"
    },
    {
      "inputs": [
        {
          "internalType": "address",
          "name": "to",
          "type": "address"
        },
        {
          "internalType": "uint256",
          "name": "tokenId",
          "type": "uint256"
        }
      ],
      "name": "approve",
      "outputs": [],
      "stateMutability": "nonpayable",
      "type": "function"
    },
    {
      "inputs": [
        {
          "internalType": "address",
          "name": "owner",
          "type": "address"
        }
      ],
      "name": "balanceOf",
      "outputs": [
        {
          "internalType": "uint256",
          "name": "",
          "type": "uint256"
        }
      ],
      "stateMutability": "view",
      "type": "function"
    },
    {
      "inputs": [],
      "name": "baseURI",
      "outputs": [
        {
          "internalType": "string",
          "name": "",
          "type": "string"
        }
      ],
      "stateMutability": "view",
      "type": "function"
    },
    {
      "inputs": [
        {
          "internalType": "uint256",
          "name": "tokenId",
          "type": "uint256"
        }
      ],
      "name": "getApproved",
      "outputs": [
        {
          "internalType": "address",
          "name": "",
          "type": "address"
        }
      ],
      "stateMutability": "view",
      "type": "function"
    },
    {
      "inputs": [
        {
          "internalType": "uint256",
          "name": "tokenId",
          "type": "uint256"
        }
      ],
      "name": "getPetMetadata",
      "outputs": [
        {
          "components": [
            {
              "internalType": "string",
              "name": "name",
              "type": "string"
            },
            {
              "internalType": "string",
              "name": "petType",
              "type": "string"
            },
            {
              "internalType": "string",
              "name": "rarity",
              "type": "string"
            },
            {
              "internalType": "uint256",
              "name": "level",
              "type": "uint256"
            },
            {
              "internalType": "bool",
              "name": "isShiny",
              "type": "bool"
            }
          ],
          "internalType": "struct PetNFT.PetMetadata",
          "name": "",
          "type": "tuple"
        }
      ],
      "stateMutability": "view",
      "type": "function"
    },
    {
      "inputs": [
        {
          "internalType": "address",
          "name": "owner",
          "type": "address"
        },
        {
          "internalType": "address",
          "name": "operator",
          "type": "address"
        }
      ],
      "name": "isApprovedForAll",
      "outputs": [
        {
          "internalType": "bool",
          "name": "",
          "type": "bool"
        }
      ],
      "stateMutability": "view",
      "type": "function"
    },
    {
      "inputs": [
        {
          "internalType": "uint256",
          "name": "tokenId",
          "type": "uint256"
        }
      ],
      "name": "levelUp",
      "outputs": [],
      "stateMutability": "nonpayable",
      "type": "function"
    },
    {
      "inputs": [
        {
          "internalType": "address",
          "name": "to",
          "type": "address"
        },
        {
          "internalType": "string",
          "name": "name",
          "type": "string"
        },
        {
          "internalType": "string",
          "name": "petType",
          "type": "string"
        },
        {
          "internalType": "string",
          "name": "rarity",
          "type": "string"
        },
        {
          "internalType": "bool",
          "name": "isShiny",
          "type": "bool"
        }
      ],
      "name": "mint",
      "outputs": [
        {
          "internalType": "uint256",
          "name": "",
          "type": "uint256"
        }
      ],
      "stateMutability": "nonpayable",
      "type": "function"
    },
    {
      "inputs": [],
      "name": "name",
      "outputs": [
        {
          "internalType": "string",
          "name": "",
          "type": "string"
        }
      ],
      "stateMutability": "view",
      "type": "function"
    },
    {
      "inputs": [],
      "name": "owner",
      "outputs": [
        {
          "internalType": "address",
          "name": "",
          "type": "address"
        }
      ],
      "stateMutability": "view",
      "type": "function"
    },
    {
      "inputs": [
        {
          "internalType": "uint256",
          "name": "tokenId",
          "type": "uint256"
        }
      ],
      "name": "ownerOf",
      "outputs": [
        {
          "internalType": "address",
          "name": "",
          "type": "address"
        }
      ],
      "stateMutability": "view",
      "type": "function"
    },
    {
      "inputs": [
        {
          "internalType": "uint256",
          "name": "",
          "type": "uint256"
        }
      ],
      "name": "petMetadata",
      "outputs": [
        {
          "internalType": "string",
          "name": "name",
          "type": "string"
        },
        {
          "internalType": "string",
          "name": "petType",
          "type": "string"
        },
        {
          "internalType": "string",
          "name": "rarity",
          "type": "string"
        },
        {
          "internalType": "uint256",
          "name": "level",
          "type": "uint256"
        },
        {
          "internalType": "bool",
          "name": "isShiny",
          "type": "bool"
        }
      ],
      "stateMutability": "view",
      "type": "function"
    },
    {
      "inputs": [],
      "name": "renounceOwnership",
      "outputs": [],
      "stateMutability": "nonpayable",
      "type": "function"
    },
    {
      "inputs": [
        {
          "internalType": "address",
          "name": "from",
          "type": "address"
        },
        {
          "internalType": "address",
          "name": "to",
          "type": "address"
        },
        {
          "internalType": "uint256",
          "name": "tokenId",
          "type": "uint256"
        }
      ],
      "name": "safeTransferFrom",
      "outputs": [],
      "stateMutability": "nonpayable",
      "type": "function"
    },
    {
      "inputs": [
        {
          "internalType": "address",
          "name": "from",
          "type": "address"
        },
        {
          "internalType": "address",
          "name": "to",
          "type": "address"
        },
        {
          "internalType": "uint256",
          "name": "tokenId",
          "type": "uint256"
        },
        {
          "internalType": "bytes",
          "name": "data",
          "type": "bytes"
        }
      ],
      "name": "safeTransferFrom",
      "outputs": [],
      "stateMutability": "nonpayable",
      "type": "function"
    },
    {
      "inputs": [
        {
          "internalType": "address",
          "name": "operator",
          "type": "address"
        },
        {
          "internalType": "bool",
          "name": "approved",
          "type": "bool"
        }
      ],
      "name": "setApprovalForAll",
      "outputs": [],
      "stateMutability": "nonpayable",
      "type": "function"
    },
    {
      "inputs": [
        {
          "internalType": "string",
          "name": "_baseURI",
          "type": "string"
        }
      ],
      "name": "setBaseURI",
      "outputs": [],
      "stateMutability": "nonpayable",
      "type": "function"
    },
    {
      "inputs": [
        {
          "internalType": "uint256",
          "name": "tokenId",
          "type": "uint256"
        },
        {
          "internalType": "string",
          "name": "tokenURI",
          "type": "string"
        }
      ],
      "name": "setTokenURI",
      "outputs": [],
      "stateMutability": "nonpayable",
      "type": "function"
    },
    {
      "inputs": [
        {
          "internalType": "bytes4",
          "name": "interfaceId",
          "type": "bytes4"
        }
      ],
      "name": "supportsInterface",
      "outputs": [
        {
          "internalType": "bool",
          "name": "",
          "type": "bool"
        }
      ],
      "stateMutability": "view",
      "type": "function"
    },
    {
      "inputs": [],
      "name": "symbol",
      "outputs": [
        {
          "internalType": "string",
          "name": "",
          "type": "string"
        }
      ],
      "stateMutability": "view",
      "type": "function"
    },
    {
      "inputs": [
        {
          "internalType": "uint256",
          "name": "index",
          "type": "uint256"
        }
      ],
      "name": "tokenByIndex",
      "outputs": [
        {
          "internalType": "uint256",
          "name": "",
          "type": "uint256"
        }
      ],
      "stateMutability": "view",
      "type": "function"
    },
    {
      "inputs": [
        {
          "internalType": "address",
          "name": "owner",
          "type": "address"
        },
        {
          "internalType": "uint256",
          "name": "index",
          "type": "uint256"
        }
      ],
      "name": "tokenOfOwnerByIndex",
      "outputs": [
        {
          "internalType": "uint256",
          "name": "",
          "type": "uint256"
        }
      ],
      "stateMutability": "view",
      "type": "function"
    },
    {
      "inputs": [
        {
          "internalType": "uint256",
          "name": "tokenId",
          "type": "uint256"
        }
      ],
      "name": "tokenURI",
      "outputs": [
        {
          "internalType": "string",
          "name": "",
          "type": "string"
        }
      ],
      "stateMutability": "view",
      "type": "function"
    },
    {
      "inputs": [],
      "name": "totalSupply",
      "outputs": [
        {
          "internalType": "uint256",
          "name": "",
          "type": "uint256"
        }
      ],
      "stateMutability": "view",
      "type": "function"
    },
    {
      "inputs": [
        {
          "internalType": "address",
          "name": "from",
          "type": "address"
        },
        {
          "internalType": "address",
          "name": "to",
          "type": "address"
        },
        {
          "internalType": "uint256",
          "name": "tokenId",
          "type": "uint256"
        }
      ],
      "name": "transferFrom",
      "outputs": [],
      "stateMutability": "nonpayable",
      "type": "function"
    },
    {
      "inputs": [
        {
          "internalType": "address",
          "name": "newOwner",
          "type": "address"
        }
      ],
      "name": "transferOwnership",
      "outputs": [],
      "stateMutability": "nonpayable",
      "type": "function"
    }
  ],
  "bytecode": "0x60806040523480156200001157600080fd5b5060405162002a0238038062002a02833981016040819052620000349162000130565b6040518060400160405280600881526020016747616d655065747360c01b8152506040518060400160405280600381526020016214115560ea1b815250816000908162000082919062000294565b50600162000091828262000294565b505050620000ae620000a8620000c460201b60201c565b620000c8565b600c620000bc828262000294565b505062000360565b3390565b600a80546001600160a01b038381166001600160a01b0319831681179093556040519116919082907f8be0079c531659141344cd1fd0a4f28419497f9722a3daafe3b4186f6b6457e090600090a35050565b634e487b7160e01b600052604160045260246000fd5b600060208083850312156200014457600080fd5b82516001600160401b03808211156200015c57600080fd5b818501915085601f8301126200017157600080fd5b8151818111156200018657620001866200011a565b604051601f8201601f19908116603f01168101908382118183101715620001b157620001b16200011a565b816040528281528886848701011115620001ca57600080fd5b600093505b82841015620001ee5784840186015181850187015292850192620001cf565b600086848301015280965050505050505092915050565b600181811c908216806200021a57607f821691505b6020821081036200023b57634e487b7160e01b600052602260045260246000fd5b50919050565b601f8211156200028f57600081815260208120601f850160051c810160208610156200026a5750805b601f850160051c820191505b818110156200028b5782815560010162000276565b5050505b505050565b81516001600160401b03811115620002b057620002b06200011a565b620002c881620002c1845462000205565b8462000241565b602080601f831160018114620003005760008415620002e75750858301515b600019600386901b1c1916600185901b1785556200028b565b600085815260208120601f198616915b82811015620003315788860151825594840194600190910190840162000310565b5085821015620003505787850151600019600388901b60f8161c191681555b5050505050600190811b01905550565b61269280620003706000396000f3fe608060405234801561001057600080fd5b506004361061018e5760003560e01c806355f804b3116100de57806395d89b4111610097578063c87b56dd11610071578063c87b56dd14610360578063d3e9bfff14610373578063e985e9c514610386578063f2fde38b146103c257600080fd5b806395d89b4114610332578063a22cb4651461033a578063b88d4fde1461034d57600080fd5b806355f804b3146102d85780636352211e146102eb5780636c0360eb146102fe57806370a0823114610306578063715018a6146103195780638da5cb5b1461032157600080fd5b8063162094c41161014b5780632f745c59116101255780632f745c591461027f57806333fcab8d1461029257806342842e0e146102b25780634f6ccce7146102c557600080fd5b8063162094c41461024757806318160ddd1461025a57806323b872dd1461026c57600080fd5b806301ffc9a71461019357806306fdde03146101bb578063081812fc146101d0578063095ea7b3146101fb5780630ce90ec2146102105780630e0a839c14610223575b600080fd5b6101a66101a1366004611cf8565b6103d5565b60405190151581526020015b60405180910390f35b6101c36103e6565b6040516101b29190611d6c565b6101e36101de366004611d7f565b610478565b6040516001600160a01b0390911681526020016101b2565b61020e610209366004611db4565b61049f565b005b61020e61021e366004611d7f565b6105b9565b610236610231366004611d7f565b61069d565b6040516101b2959493929190611dde565b61020e610255366004611edd565b610867565b6008545b6040519081526020016101b2565b61020e61027a366004611f24565b6108ac565b61025e61028d366004611db4565b6108dd565b6102a56102a0366004611d7f565b610973565b6040516101b29190611f60565b61020e6102c0366004611f24565b610bba565b61025e6102d3366004611d7f565b610bd5565b61020e6102e6366004611fdb565b610c68565b6101e36102f9366004611d7f565b610c80565b6101c3610ce0565b61025e610314366004612010565b610d6e565b61020e610df4565b600a546001600160a01b03166101e3565b6101c3610e08565b61020e61034836600461203b565b610e17565b61020e61035b36600461206e565b610e22565b6101c361036e366004611d7f565b610e5a565b61025e6103813660046120ea565b610fa5565b6101a6610394366004612194565b6001600160a01b03918216600090815260056020908152604080832093909416825291909152205460ff1690565b61020e6103d0366004612010565b6110c5565b60006103e08261113e565b92915050565b6060600080546103f5906121be565b80601f0160208091040260200160405190810160405280929190818152602001828054610421906121be565b801561046e5780601f106104435761010080835404028352916020019161046e565b820191906000526020600020905b81548152906001019060200180831161045157829003601f168201915b5050505050905090565b600061048382611163565b506000908152600460205260409020546001600160a01b031690565b60006104aa82610c80565b9050806001600160a01b0316836001600160a01b03160361051c5760405162461bcd60e51b815260206004820152602160248201527f4552433732313a20617070726f76616c20746f2063757272656e74206f776e656044820152603960f91b60648201526084015b60405180910390fd5b336001600160a01b038216148061053857506105388133610394565b6105aa5760405162461bcd60e51b815260206004820152603d60248201527f4552433732313a20617070726f76652063616c6c6572206973206e6f7420746f60448201527f6b656e206f776e6572206f7220617070726f76656420666f7220616c6c0000006064820152608401610513565b6105b483836111b3565b505050565b6105c281611221565b6105de5760405162461bcd60e51b8152600401610513906121f8565b336105e882610c80565b6001600160a01b03161461062e5760405162461bcd60e51b815260206004820152600d60248201526c2737ba103832ba1037bbb732b960991b6044820152606401610513565b6000818152600d6020526040812060030180549161064b8361223a565b90915550506000818152600d6020908152604091829020600301548251848152918201527fa1a05649b8ed4bbd808e74959650f9a645debbecd9c0350344c79b7c6e8b3b9b910160405180910390a150565b600d602052600090815260409020805481906106b8906121be565b80601f01602080910402602001604051908101604052809291908181526020018280546106e4906121be565b80156107315780601f1061070657610100808354040283529160200191610731565b820191906000526020600020905b81548152906001019060200180831161071457829003601f168201915b505050505090806001018054610746906121be565b80601f0160208091040260200160405190810160405280929190818152602001828054610772906121be565b80156107bf5780601f10610794576101008083540402835291602001916107bf565b820191906000526020600020905b8154815290600101906020018083116107a257829003601f168201915b5050505050908060020180546107d4906121be565b80601f0160208091040260200160405190810160405280929190818152602001828054610800906121be565b801561084d5780601f106108225761010080835404028352916020019161084d565b820191906000526020600020905b81548152906001019060200180831161083057829003601f168201915b50505050600383015460049093015491929160ff16905085565b61086f61123e565b61087882611221565b6108945760405162461bcd60e51b8152600401610513906121f8565b6000828152600e602052604090206105b482826122a1565b6108b63382611298565b6108d25760405162461bcd60e51b815260040161051390612361565b6105b4838383611317565b60006108e883610d6e565b821061094a5760405162461bcd60e51b815260206004820152602b60248201527f455243373231456e756d657261626c653a206f776e657220696e646578206f7560448201526a74206f6620626f756e647360a81b6064820152608401610513565b506001600160a01b03919091166000908152600660209081526040808320938352929052205490565b6109a76040518060a00160405280606081526020016060815260200160608152602001600081526020016000151581525090565b6109b082611221565b6109cc5760405162461bcd60e51b8152600401610513906121f8565b6000828152600d602052604090819020815160a081019092528054829082906109f4906121be565b80601f0160208091040260200160405190810160405280929190818152602001828054610a20906121be565b8015610a6d5780601f10610a4257610100808354040283529160200191610a6d565b820191906000526020600020905b815481529060010190602001808311610a5057829003601f168201915b50505050508152602001600182018054610a86906121be565b80601f0160208091040260200160405190810160405280929190818152602001828054610ab2906121be565b8015610aff5780601f10610ad457610100808354040283529160200191610aff565b820191906000526020600020905b815481529060010190602001808311610ae257829003601f168201915b50505050508152602001600282018054610b18906121be565b80601f0160208091040260200160405190810160405280929190818152602001828054610b44906121be565b8015610b915780601f10610b6657610100808354040283529160200191610b91565b820191906000526020600020905b815481529060010190602001808311610b7457829003601f168201915b50505091835250506003820154602082015260049091015460ff16151560409091015292915050565b6105b483838360405180602001604052806000815250610e22565b6000610be060085490565b8210610c435760405162461bcd60e51b815260206004820152602c60248201527f455243373231456e756d657261626c653a20676c6f62616c20696e646578206f60448201526b7574206f6620626f756e647360a01b6064820152608401610513565b60088281548110610c5657610c566123ae565b90600052602060002001549050919050565b610c7061123e565b600c610c7c82826122a1565b5050565b6000818152600260205260408120546001600160a01b0316806103e05760405162461bcd60e51b8152602060048201526018602482015277115490cdcc8c4e881a5b9d985b1a59081d1bdad95b88125160421b6044820152606401610513565b600c8054610ced906121be565b80601f0160208091040260200160405190810160405280929190818152602001828054610d19906121be565b8015610d665780601f10610d3b57610100808354040283529160200191610d66565b820191906000526020600020905b815481529060010190602001808311610d4957829003601f168201915b505050505081565b60006001600160a01b038216610dd85760405162461bcd60e51b815260206004820152602960248201527f4552433732313a2061646472657373207a65726f206973206e6f7420612076616044820152683634b21037bbb732b960b91b6064820152608401610513565b506001600160a01b031660009081526003602052604090205490565b610dfc61123e565b610e066000611488565b565b6060600180546103f5906121be565b610c7c3383836114da565b610e2c3383611298565b610e485760405162461bcd60e51b815260040161051390612361565b610e54848484846115a8565b50505050565b6060610e6582611221565b610ec95760405162461bcd60e51b815260206004820152602f60248201527f4552433732314d657461646174613a2055524920717565727920666f72206e6f60448201526e3732bc34b9ba32b73a103a37b5b2b760891b6064820152608401610513565b6000828152600e602052604081208054610ee2906121be565b80601f0160208091040260200160405190810160405280929190818152602001828054610f0e906121be565b8015610f5b5780601f10610f3057610100808354040283529160200191610f5b565b820191906000526020600020905b815481529060010190602001808311610f3e57829003601f168201915b50505050509050600081511115610f725792915050565b600c610f7d846115db565b604051602001610f8e9291906123c4565b604051602081830303815290604052915050919050565b6000610faf61123e565b610fbd600b80546001019055565b6000610fc8600b5490565b9050610fd4878261166e565b6040805160a08101825287815260208082018890528183018790526001606083015285151560808301526000848152600d909152919091208151819061101a90826122a1565b506020820151600182019061102f90826122a1565b506040820151600282019061104490826122a1565b50606082015160038201556080909101516004909101805460ff19169115159190911790556000818152600d60205260409081902090516001600160a01b038916917f68ee51aa2f80958db3b8db6da2ba1f7c79d162148c3fff996a901c4fdfa3fd69916110b39185916124c8565b60405180910390a29695505050505050565b6110cd61123e565b6001600160a01b0381166111325760405162461bcd60e51b815260206004820152602660248201527f4f776e61626c653a206e6577206f776e657220697320746865207a65726f206160448201526564647265737360d01b6064820152608401610513565b61113b81611488565b50565b60006001600160e01b0319821663780e9d6360e01b14806103e057506103e0826117e9565b61116c81611221565b61113b5760405162461bcd60e51b8152602060048201526018602482015277115490cdcc8c4e881a5b9d985b1a59081d1bdad95b88125160421b6044820152606401610513565b600081815260046020526040902080546001600160a01b0319166001600160a01b03841690811790915581906111e882610c80565b6001600160a01b03167f8c5be1e5ebec7d5bd14f71427d1e84f3dd0314c0f7b2291e5b200ac8c7c3b92560405160405180910390a45050565b6000908152600260205260409020546001600160a01b0316151590565b600a546001600160a01b03163314610e065760405162461bcd60e51b815260206004820181905260248201527f4f776e61626c653a2063616c6c6572206973206e6f7420746865206f776e65726044820152606401610513565b6000806112a483610c80565b9050806001600160a01b0316846001600160a01b031614806112eb57506001600160a01b0380821660009081526005602090815260408083209388168352929052205460ff165b8061130f5750836001600160a01b031661130484610478565b6001600160a01b0316145b949350505050565b826001600160a01b031661132a82610c80565b6001600160a01b0316146113505760405162461bcd60e51b815260040161051390612542565b6001600160a01b0382166113b25760405162461bcd60e51b8152602060048201526024808201527f4552433732313a207472616e7366657220746f20746865207a65726f206164646044820152637265737360e01b6064820152608401610513565b6113bf8383836001611839565b826001600160a01b03166113d282610c80565b6001600160a01b0316146113f85760405162461bcd60e51b815260040161051390612542565b600081815260046020908152604080832080546001600160a01b03199081169091556001600160a01b0387811680865260038552838620805460001901905590871680865283862080546001019055868652600290945282852080549092168417909155905184937fddf252ad1be2c89b69c2b068fc378daa952ba7f163c4a11628f55a4df523b3ef91a4505050565b600a80546001600160a01b038381166001600160a01b0319831681179093556040519116919082907f8be0079c531659141344cd1fd0a4f28419497f9722a3daafe3b4186f6b6457e090600090a35050565b816001600160a01b0316836001600160a01b03160361153b5760405162461bcd60e51b815260206004820152601960248201527f4552433732313a20617070726f766520746f2063616c6c6572000000000000006044820152606401610513565b6001600160a01b03838116600081815260056020908152604080832094871680845294825291829020805460ff191686151590811790915591519182527f17307eab39ab6107e8899845ad3d59bd9653f200f220920489ca2b5937696c31910160405180910390a3505050565b6115b3848484611317565b6115bf84848484611845565b610e545760405162461bcd60e51b815260040161051390612587565b606060006115e883611946565b600101905060008167ffffffffffffffff81111561160857611608611e31565b6040519080825280601f01601f191660200182016040528015611632576020820181803683370190505b5090508181016020015b600019016f181899199a1a9b1b9c1cb0b131b232b360811b600a86061a8153600a850494508461163c57509392505050565b6001600160a01b0382166116c45760405162461bcd60e51b815260206004820181905260248201527f4552433732313a206d696e7420746f20746865207a65726f20616464726573736044820152606401610513565b6116cd81611221565b1561171a5760405162461bcd60e51b815260206004820152601c60248201527f4552433732313a20746f6b656e20616c7265616479206d696e746564000000006044820152606401610513565b611728600083836001611839565b61173181611221565b1561177e5760405162461bcd60e51b815260206004820152601c60248201527f4552433732313a20746f6b656e20616c7265616479206d696e746564000000006044820152606401610513565b6001600160a01b038216600081815260036020908152604080832080546001019055848352600290915280822080546001600160a01b0319168417905551839291907fddf252ad1be2c89b69c2b068fc378daa952ba7f163c4a11628f55a4df523b3ef908290a45050565b60006001600160e01b031982166380ac58cd60e01b148061181a57506001600160e01b03198216635b5e139f60e01b145b806103e057506301ffc9a760e01b6001600160e01b03198316146103e0565b610e5484848484611a1e565b60006001600160a01b0384163b1561193b57604051630a85bd0160e11b81526001600160a01b0385169063150b7a02906118899033908990889088906004016125d9565b6020604051808303816000875af19250505080156118c4575060408051601f3d908101601f191682019092526118c191810190612616565b60015b611921573d8080156118f2576040519150601f19603f3d011682016040523d82523d6000602084013e6118f7565b606091505b5080516000036119195760405162461bcd60e51b815260040161051390612587565b805181602001fd5b6001600160e01b031916630a85bd0160e11b14905061130f565b506001949350505050565b60008072184f03e93ff9f4daa797ed6e38ed64bf6a1f0160401b83106119855772184f03e93ff9f4daa797ed6e38ed64bf6a1f0160401b830492506040015b6d04ee2d6d415b85acef810000000083106119b1576d04ee2d6d415b85acef8100000000830492506020015b662386f26fc1000083106119cf57662386f26fc10000830492506010015b6305f5e10083106119e7576305f5e100830492506008015b61271083106119fb57612710830492506004015b60648310611a0d576064830492506002015b600a83106103e05760010192915050565b6001811115611a8d5760405162461bcd60e51b815260206004820152603560248201527f455243373231456e756d657261626c653a20636f6e7365637574697665207472604482015274185b9cd9995c9cc81b9bdd081cdd5c1c1bdc9d1959605a1b6064820152608401610513565b816001600160a01b038516611ae957611ae481600880546000838152600960205260408120829055600182018355919091527ff3f7a9fe364faab93b216da50a3214154f22a0a2b415b23a84c8169e8b636ee30155565b611b0c565b836001600160a01b0316856001600160a01b031614611b0c57611b0c8582611b52565b6001600160a01b038416611b2857611b2381611bef565b611b4b565b846001600160a01b0316846001600160a01b031614611b4b57611b4b8482611c9e565b5050505050565b60006001611b5f84610d6e565b611b699190612633565b600083815260076020526040902054909150808214611bbc576001600160a01b03841660009081526006602090815260408083208584528252808320548484528184208190558352600790915290208190555b5060009182526007602090815260408084208490556001600160a01b039094168352600681528383209183525290812055565b600854600090611c0190600190612633565b60008381526009602052604081205460088054939450909284908110611c2957611c296123ae565b906000526020600020015490508060088381548110611c4a57611c4a6123ae565b6000918252602080832090910192909255828152600990915260408082208490558582528120556008805480611c8257611c82612646565b6001900381819060005260206000200160009055905550505050565b6000611ca983610d6e565b6001600160a01b039093166000908152600660209081526040808320868452825280832085905593825260079052919091209190915550565b6001600160e01b03198116811461113b57600080fd5b600060208284031215611d0a57600080fd5b8135611d1581611ce2565b9392505050565b60005b83811015611d37578181015183820152602001611d1f565b50506000910152565b60008151808452611d58816020860160208601611d1c565b601f01601f19169290920160200192915050565b602081526000611d156020830184611d40565b600060208284031215611d9157600080fd5b5035919050565b80356001600160a01b0381168114611daf57600080fd5b919050565b60008060408385031215611dc757600080fd5b611dd083611d98565b946020939093013593505050565b60a081526000611df160a0830188611d40565b8281036020840152611e038188611d40565b90508281036040840152611e178187611d40565b606084019590955250509015156080909101529392505050565b634e487b7160e01b600052604160045260246000fd5b600067ffffffffffffffff80841115611e6257611e62611e31565b604051601f8501601f19908116603f01168101908282118183101715611e8a57611e8a611e31565b81604052809350858152868686011115611ea357600080fd5b858560208301376000602087830101525050509392505050565b600082601f830112611ece57600080fd5b611d1583833560208501611e47565b60008060408385031215611ef057600080fd5b82359150602083013567ffffffffffffffff811115611f0e57600080fd5b611f1a85828601611ebd565b9150509250929050565b600080600060608486031215611f3957600080fd5b611f4284611d98565b9250611f5060208501611d98565b9150604084013590509250925092565b602081526000825160a06020840152611f7c60c0840182611d40565b90506020840151601f1980858403016040860152611f9a8383611d40565b9250604086015191508085840301606086015250611fb88282611d40565b915050606084015160808401526080840151151560a08401528091505092915050565b600060208284031215611fed57600080fd5b813567ffffffffffffffff81111561200457600080fd5b61130f84828501611ebd565b60006020828403121561202257600080fd5b611d1582611d98565b80358015158114611daf57600080fd5b6000806040838503121561204e57600080fd5b61205783611d98565b91506120656020840161202b565b90509250929050565b6000806000806080858703121561208457600080fd5b61208d85611d98565b935061209b60208601611d98565b925060408501359150606085013567ffffffffffffffff8111156120be57600080fd5b8501601f810187136120cf57600080fd5b6120de87823560208401611e47565b91505092959194509250565b600080600080600060a0868803121561210257600080fd5b61210b86611d98565b9450602086013567ffffffffffffffff8082111561212857600080fd5b61213489838a01611ebd565b9550604088013591508082111561214a57600080fd5b61215689838a01611ebd565b9450606088013591508082111561216c57600080fd5b5061217988828901611ebd565b9250506121886080870161202b565b90509295509295909350565b600080604083850312156121a757600080fd5b6121b083611d98565b915061206560208401611d98565b600181811c908216806121d257607f821691505b6020821081036121f257634e487b7160e01b600052602260045260246000fd5b50919050565b60208082526012908201527114195d08191bd95cc81b9bdd08195e1a5cdd60721b604082015260600190565b634e487b7160e01b600052601160045260246000fd5b60006001820161224c5761224c612224565b5060010190565b601f8211156105b457600081815260208120601f850160051c8101602086101561227a5750805b601f850160051c820191505b8181101561229957828155600101612286565b505050505050565b815167ffffffffffffffff8111156122bb576122bb611e31565b6122cf816122c984546121be565b84612253565b602080601f83116001811461230457600084156122ec5750858301515b600019600386901b1c1916600185901b178555612299565b600085815260208120601f198616915b8281101561233357888601518255948401946001909101908401612314565b50858210156123515787850151600019600388901b60f8161c191681555b5050505050600190811b01905550565b6020808252602d908201527f4552433732313a2063616c6c6572206973206e6f7420746f6b656e206f776e6560408201526c1c881bdc88185c1c1c9bdd9959609a1b606082015260800190565b634e487b7160e01b600052603260045260246000fd5b60008084546123d2816121be565b600182811680156123ea57600181146123ff5761242e565b60ff198416875282151583028701945061242e565b8860005260208060002060005b858110156124255781548a82015290840190820161240c565b50505082870194505b505050508351612442818360208801611d1c565b01949350505050565b60008154612458816121be565b808552602060018381168015612475576001811461248f576124bd565b60ff1985168884015283151560051b8801830195506124bd565b866000528260002060005b858110156124b55781548a820186015290830190840161249a565b890184019650505b505050505092915050565b8281526040602082015260a0604082015260006124e860e083018461244b565b603f1980848303016060850152612502826001870161244b565b9150808483030160808501525061251c816002860161244b565b9050600384015460a084015260ff600485015416151560c0840152809150509392505050565b60208082526025908201527f4552433732313a207472616e736665722066726f6d20696e636f72726563742060408201526437bbb732b960d91b606082015260800190565b60208082526032908201527f4552433732313a207472616e7366657220746f206e6f6e20455243373231526560408201527131b2b4bb32b91034b6b83632b6b2b73a32b960711b606082015260800190565b6001600160a01b038581168252841660208201526040810183905260806060820181905260009061260c90830184611d40565b9695505050505050565b60006020828403121561262857600080fd5b8151611d1581611ce2565b818103818111156103e0576103e0612224565b634e487b7160e01b600052603160045260246000fdfea2646970667358221220e603cb327f80bf3788f6266da3f65042cacde2af8e098ebdf346f88d2cf9976764736f6c63430008130033",
  "linkReferences": {},
  "deployedLinkReferences": {}
}