{
  "_format": "hh-sol-artifact-1",
  "contractName": "TechniqueNFT",
  "sourceName": "contracts/TechniqueNFT.sol",
  "abi": [
    {
      "inputs": [
        {
          "internalType": "string",
          "name": "_baseURI",
          "type": "string"
        }
      ],
      "stateMutability": "nonpayable",
      "type": "constructor"
    },
    {
      "anonymous": false,
      "inputs": [
        {
          "indexed": true,
          "internalType": "address",
          "name": "account",
          "type": "address"
        },
        {
          "indexed": true,
          "internalType": "address",
          "name": "operator",
          "type": "address"
        },
        {
          "indexed": false,
          "internalType": "bool",
          "name": "approved",
          "type": "bool"
        }
      ],
      "name": "ApprovalForAll",
      "type": "event"
    },
    {
      "anonymous": false,
      "inputs": [
        {
          "indexed": true,
          "internalType": "address",
          "name": "previousOwner",
          "type": "address"
        },
        {
          "indexed": true,
          "internalType": "address",
          "name": "newOwner",
          "type": "address"
        }
      ],
      "name": "OwnershipTransferred",
      "type": "event"
    },
    {
      "anonymous": false,
      "inputs": [
        {
          "indexed": true,
          "internalType": "address",
          "name": "user",
          "type": "address"
        },
        {
          "indexed": false,
          "internalType": "uint256",
          "name": "petTokenId",
          "type": "uint256"
        },
        {
          "indexed": false,
          "internalType": "uint256",
          "name": "techniqueTokenId",
          "type": "uint256"
        }
      ],
      "name": "TechniqueApplied",
      "type": "event"
    },
    {
      "anonymous": false,
      "inputs": [
        {
          "indexed": true,
          "internalType": "address",
          "name": "to",
          "type": "address"
        },
        {
          "indexed": false,
          "internalType": "uint256",
          "name": "tokenId",
          "type": "uint256"
        },
        {
          "components": [
            {
              "internalType": "string",
              "name": "name",
              "type": "string"
            },
            {
              "internalType": "string",
              "name": "effect",
              "type": "string"
            },
            {
              "internalType": "uint256",
              "name": "level",
              "type": "uint256"
            },
            {
              "internalType": "string",
              "name": "rarity",
              "type": "string"
            }
          ],
          "indexed": false,
          "internalType": "struct TechniqueNFT.TechniqueInfo",
          "name": "info",
          "type": "tuple"
        }
      ],
      "name": "TechniqueMinted",
      "type": "event"
    },
    {
      "anonymous": false,
      "inputs": [
        {
          "indexed": true,
          "internalType": "address",
          "name": "operator",
          "type": "address"
        },
        {
          "indexed": true,
          "internalType": "address",
          "name": "from",
          "type": "address"
        },
        {
          "indexed": true,
          "internalType": "address",
          "name": "to",
          "type": "address"
        },
        {
          "indexed": false,
          "internalType": "uint256[]",
          "name": "ids",
          "type": "uint256[]"
        },
        {
          "indexed": false,
          "internalType": "uint256[]",
          "name": "values",
          "type": "uint256[]"
        }
      ],
      "name": "TransferBatch",
      "type": "event"
    },
    {
      "anonymous": false,
      "inputs": [
        {
          "indexed": true,
          "internalType": "address",
          "name": "operator",
          "type": "address"
        },
        {
          "indexed": true,
          "internalType": "address",
          "name": "from",
          "type": "address"
        },
        {
          "indexed": true,
          "internalType": "address",
          "name": "to",
          "type": "address"
        },
        {
          "indexed": false,
          "internalType": "uint256",
          "name": "id",
          "type": "uint256"
        },
        {
          "indexed": false,
          "internalType": "uint256",
          "name": "value",
          "type": "uint256"
        }
      ],
      "name": "TransferSingle",
      "type": "event"
    },
    {
      "anonymous": false,
      "inputs": [
        {
          "indexed": false,
          "internalType": "string",
          "name": "value",
          "type": "string"
        },
        {
          "indexed": true,
          "internalType": "uint256",
          "name": "id",
          "type": "uint256"
        }
      ],
      "name": "URI",
      "type": "event"
    },
    {
      "inputs": [
        {
          "internalType": "address",
          "name": "account",
          "type": "address"
        },
        {
          "internalType": "uint256",
          "name": "id",
          "type": "uint256"
        }
      ],
      "name": "balanceOf",
      "outputs": [
        {
          "internalType": "uint256",
          "name": "",
          "type": "uint256"
        }
      ],
      "stateMutability": "view",
      "type": "function"
    },
    {
      "inputs": [
        {
          "internalType": "address[]",
          "name": "accounts",
          "type": "address[]"
        },
        {
          "internalType": "uint256[]",
          "name": "ids",
          "type": "uint256[]"
        }
      ],
      "name": "balanceOfBatch",
      "outputs": [
        {
          "internalType": "uint256[]",
          "name": "",
          "type": "uint256[]"
        }
      ],
      "stateMutability": "view",
      "type": "function"
    },
    {
      "inputs": [],
      "name": "baseURI",
      "outputs": [
        {
          "internalType": "string",
          "name": "",
          "type": "string"
        }
      ],
      "stateMutability": "view",
      "type": "function"
    },
    {
      "inputs": [
        {
          "internalType": "uint256",
          "name": "tokenId",
          "type": "uint256"
        }
      ],
      "name": "getTechniqueInfo",
      "outputs": [
        {
          "components": [
            {
              "internalType": "string",
              "name": "name",
              "type": "string"
            },
            {
              "internalType": "string",
              "name": "effect",
              "type": "string"
            },
            {
              "internalType": "uint256",
              "name": "level",
              "type": "uint256"
            },
            {
              "internalType": "string",
              "name": "rarity",
              "type": "string"
            }
          ],
          "internalType": "struct TechniqueNFT.TechniqueInfo",
          "name": "",
          "type": "tuple"
        }
      ],
      "stateMutability": "view",
      "type": "function"
    },
    {
      "inputs": [
        {
          "internalType": "uint256",
          "name": "tokenId",
          "type": "uint256"
        }
      ],
      "name": "getTechniqueRarity",
      "outputs": [
        {
          "internalType": "string",
          "name": "",
          "type": "string"
        }
      ],
      "stateMutability": "view",
      "type": "function"
    },
    {
      "inputs": [
        {
          "internalType": "address",
          "name": "account",
          "type": "address"
        },
        {
          "internalType": "address",
          "name": "operator",
          "type": "address"
        }
      ],
      "name": "isApprovedForAll",
      "outputs": [
        {
          "internalType": "bool",
          "name": "",
          "type": "bool"
        }
      ],
      "stateMutability": "view",
      "type": "function"
    },
    {
      "inputs": [
        {
          "internalType": "address",
          "name": "to",
          "type": "address"
        },
        {
          "internalType": "string",
          "name": "name",
          "type": "string"
        },
        {
          "internalType": "string",
          "name": "effect",
          "type": "string"
        },
        {
          "internalType": "uint256",
          "name": "level",
          "type": "uint256"
        },
        {
          "internalType": "string",
          "name": "rarity",
          "type": "string"
        }
      ],
      "name": "mint",
      "outputs": [
        {
          "internalType": "uint256",
          "name": "",
          "type": "uint256"
        }
      ],
      "stateMutability": "nonpayable",
      "type": "function"
    },
    {
      "inputs": [
        {
          "internalType": "address",
          "name": "to",
          "type": "address"
        },
        {
          "internalType": "string[]",
          "name": "names",
          "type": "string[]"
        },
        {
          "internalType": "string[]",
          "name": "effects",
          "type": "string[]"
        },
        {
          "internalType": "uint256[]",
          "name": "levels",
          "type": "uint256[]"
        },
        {
          "internalType": "string[]",
          "name": "rarities",
          "type": "string[]"
        }
      ],
      "name": "mintBatch",
      "outputs": [
        {
          "internalType": "uint256[]",
          "name": "",
          "type": "uint256[]"
        }
      ],
      "stateMutability": "nonpayable",
      "type": "function"
    },
    {
      "inputs": [],
      "name": "owner",
      "outputs": [
        {
          "internalType": "address",
          "name": "",
          "type": "address"
        }
      ],
      "stateMutability": "view",
      "type": "function"
    },
    {
      "inputs": [],
      "name": "renounceOwnership",
      "outputs": [],
      "stateMutability": "nonpayable",
      "type": "function"
    },
    {
      "inputs": [
        {
          "internalType": "address",
          "name": "from",
          "type": "address"
        },
        {
          "internalType": "address",
          "name": "to",
          "type": "address"
        },
        {
          "internalType": "uint256[]",
          "name": "ids",
          "type": "uint256[]"
        },
        {
          "internalType": "uint256[]",
          "name": "amounts",
          "type": "uint256[]"
        },
        {
          "internalType": "bytes",
          "name": "data",
          "type": "bytes"
        }
      ],
      "name": "safeBatchTransferFrom",
      "outputs": [],
      "stateMutability": "nonpayable",
      "type": "function"
    },
    {
      "inputs": [
        {
          "internalType": "address",
          "name": "from",
          "type": "address"
        },
        {
          "internalType": "address",
          "name": "to",
          "type": "address"
        },
        {
          "internalType": "uint256",
          "name": "id",
          "type": "uint256"
        },
        {
          "internalType": "uint256",
          "name": "amount",
          "type": "uint256"
        },
        {
          "internalType": "bytes",
          "name": "data",
          "type": "bytes"
        }
      ],
      "name": "safeTransferFrom",
      "outputs": [],
      "stateMutability": "nonpayable",
      "type": "function"
    },
    {
      "inputs": [
        {
          "internalType": "address",
          "name": "operator",
          "type": "address"
        },
        {
          "internalType": "bool",
          "name": "approved",
          "type": "bool"
        }
      ],
      "name": "setApprovalForAll",
      "outputs": [],
      "stateMutability": "nonpayable",
      "type": "function"
    },
    {
      "inputs": [
        {
          "internalType": "string",
          "name": "_baseURI",
          "type": "string"
        }
      ],
      "name": "setBaseURI",
      "outputs": [],
      "stateMutability": "nonpayable",
      "type": "function"
    },
    {
      "inputs": [
        {
          "internalType": "uint256",
          "name": "tokenId",
          "type": "uint256"
        },
        {
          "internalType": "string",
          "name": "tokenURI",
          "type": "string"
        }
      ],
      "name": "setTokenURI",
      "outputs": [],
      "stateMutability": "nonpayable",
      "type": "function"
    },
    {
      "inputs": [
        {
          "internalType": "bytes4",
          "name": "interfaceId",
          "type": "bytes4"
        }
      ],
      "name": "supportsInterface",
      "outputs": [
        {
          "internalType": "bool",
          "name": "",
          "type": "bool"
        }
      ],
      "stateMutability": "view",
      "type": "function"
    },
    {
      "inputs": [
        {
          "internalType": "uint256",
          "name": "",
          "type": "uint256"
        }
      ],
      "name": "techniqueInfo",
      "outputs": [
        {
          "internalType": "string",
          "name": "name",
          "type": "string"
        },
        {
          "internalType": "string",
          "name": "effect",
          "type": "string"
        },
        {
          "internalType": "uint256",
          "name": "level",
          "type": "uint256"
        },
        {
          "internalType": "string",
          "name": "rarity",
          "type": "string"
        }
      ],
      "stateMutability": "view",
      "type": "function"
    },
    {
      "inputs": [
        {
          "internalType": "address",
          "name": "newOwner",
          "type": "address"
        }
      ],
      "name": "transferOwnership",
      "outputs": [],
      "stateMutability": "nonpayable",
      "type": "function"
    },
    {
      "inputs": [
        {
          "internalType": "uint256",
          "name": "tokenId",
          "type": "uint256"
        }
      ],
      "name": "uri",
      "outputs": [
        {
          "internalType": "string",
          "name": "",
          "type": "string"
        }
      ],
      "stateMutability": "view",
      "type": "function"
    }
  ],
  "bytecode": "0x608060405260016007553480156200001657600080fd5b5060405162002bce38038062002bce8339810160408190526200003991620000e1565b80620000458162000067565b50620000513362000079565b60046200005f828262000245565b505062000311565b600262000075828262000245565b5050565b600380546001600160a01b038381166001600160a01b0319831681179093556040519116919082907f8be0079c531659141344cd1fd0a4f28419497f9722a3daafe3b4186f6b6457e090600090a35050565b634e487b7160e01b600052604160045260246000fd5b60006020808385031215620000f557600080fd5b82516001600160401b03808211156200010d57600080fd5b818501915085601f8301126200012257600080fd5b815181811115620001375762000137620000cb565b604051601f8201601f19908116603f01168101908382118183101715620001625762000162620000cb565b8160405282815288868487010111156200017b57600080fd5b600093505b828410156200019f578484018601518185018701529285019262000180565b600086848301015280965050505050505092915050565b600181811c90821680620001cb57607f821691505b602082108103620001ec57634e487b7160e01b600052602260045260246000fd5b50919050565b601f8211156200024057600081815260208120601f850160051c810160208610156200021b5750805b601f850160051c820191505b818110156200023c5782815560010162000227565b5050505b505050565b81516001600160401b03811115620002615762000261620000cb565b6200027981620002728454620001b6565b84620001f2565b602080601f831160018114620002b15760008415620002985750858301515b600019600386901b1c1916600185901b1785556200023c565b600085815260208120601f198616915b82811015620002e257888601518255948401946001909101908401620002c1565b5085821015620003015787850151600019600388901b60f8161c191681555b5050505050600190811b01905550565b6128ad80620003216000396000f3fe608060405234801561001057600080fd5b50600436106101205760003560e01c80636ba10813116100ad578063a22cb46511610071578063a22cb4651461027d578063e985e9c514610290578063f242432a146102cc578063f2fde38b146102df578063fd1c0657146102f257600080fd5b80636ba108131461022c5780636c0360eb1461023f578063715018a61461024757806372fcbe731461024f5780638da5cb5b1461026257600080fd5b8063162094c4116100f4578063162094c4146101ae57806329eab104146101c35780632eb2c2d6146101e65780634e1273f4146101f957806355f804b31461021957600080fd5b8062fdd58e1461012557806301ffc9a71461014b5780630e89341c1461016e57806314f7dfac1461018e575b600080fd5b610138610133366004611a95565b610305565b6040519081526020015b60405180910390f35b61015e610159366004611ad5565b61039e565b6040519015158152602001610142565b61018161017c366004611af9565b6103ee565b6040516101429190611b62565b6101a161019c366004611af9565b6104cf565b6040516101429190611b75565b6101c16101bc366004611c95565b6106d9565b005b6101d66101d1366004611af9565b6106fe565b6040516101429493929190611cdb565b6101c16101f4366004611dae565b6108be565b61020c610207366004611e57565b61090a565b6040516101429190611f52565b6101c1610227366004611f65565b610a33565b61020c61023a36600461202b565b610a4b565b610181610d15565b6101c1610da3565b61018161025d366004611af9565b610db7565b6003546040516001600160a01b039091168152602001610142565b6101c161028b3660046120db565b610e5c565b61015e61029e366004612117565b6001600160a01b03918216600090815260016020908152604080832093909416825291909152205460ff1690565b6101c16102da36600461214a565b610e67565b6101c16102ed3660046121ae565b610eac565b6101386103003660046121c9565b610f25565b60006001600160a01b0383166103755760405162461bcd60e51b815260206004820152602a60248201527f455243313135353a2061646472657373207a65726f206973206e6f742061207660448201526930b634b21037bbb732b960b11b60648201526084015b60405180910390fd5b506000818152602081815260408083206001600160a01b03861684529091529020545b92915050565b60006001600160e01b03198216636cdb3d1360e11b14806103cf57506001600160e01b031982166303a24d0760e21b145b8061039857506301ffc9a760e01b6001600160e01b0319831614610398565b60008181526006602052604081208054606092919061040c90612251565b80601f016020809104026020016040519081016040528092919081815260200182805461043890612251565b80156104855780601f1061045a57610100808354040283529160200191610485565b820191906000526020600020905b81548152906001019060200180831161046857829003601f168201915b5050505050905060008151111561049c5792915050565b60046104a784611037565b6040516020016104b892919061228b565b604051602081830303815290604052915050919050565b6104fa6040518060800160405280606081526020016060815260200160008152602001606081525090565b6000828152600560205260409081902081516080810190925280548290829061052290612251565b80601f016020809104026020016040519081016040528092919081815260200182805461054e90612251565b801561059b5780601f106105705761010080835404028352916020019161059b565b820191906000526020600020905b81548152906001019060200180831161057e57829003601f168201915b505050505081526020016001820180546105b490612251565b80601f01602080910402602001604051908101604052809291908181526020018280546105e090612251565b801561062d5780601f106106025761010080835404028352916020019161062d565b820191906000526020600020905b81548152906001019060200180831161061057829003601f168201915b505050505081526020016002820154815260200160038201805461065090612251565b80601f016020809104026020016040519081016040528092919081815260200182805461067c90612251565b80156106c95780601f1061069e576101008083540402835291602001916106c9565b820191906000526020600020905b8154815290600101906020018083116106ac57829003601f168201915b5050505050815250509050919050565b6106e16110c9565b60008281526006602052604090206106f98282612358565b505050565b60056020526000908152604090208054819061071990612251565b80601f016020809104026020016040519081016040528092919081815260200182805461074590612251565b80156107925780601f1061076757610100808354040283529160200191610792565b820191906000526020600020905b81548152906001019060200180831161077557829003601f168201915b5050505050908060010180546107a790612251565b80601f01602080910402602001604051908101604052809291908181526020018280546107d390612251565b80156108205780601f106107f557610100808354040283529160200191610820565b820191906000526020600020905b81548152906001019060200180831161080357829003601f168201915b50505050509080600201549080600301805461083b90612251565b80601f016020809104026020016040519081016040528092919081815260200182805461086790612251565b80156108b45780601f10610889576101008083540402835291602001916108b4565b820191906000526020600020905b81548152906001019060200180831161089757829003601f168201915b5050505050905084565b6001600160a01b0385163314806108da57506108da853361029e565b6108f65760405162461bcd60e51b815260040161036c90612417565b6109038585858585611123565b5050505050565b6060815183511461096f5760405162461bcd60e51b815260206004820152602960248201527f455243313135353a206163636f756e747320616e6420696473206c656e677468604482015268040dad2e6dac2e8c6d60bb1b606482015260840161036c565b600083516001600160401b0381111561098a5761098a611be0565b6040519080825280602002602001820160405280156109b3578160200160208202803683370190505b50905060005b8451811015610a2b576109fe8582815181106109d7576109d7612465565b60200260200101518583815181106109f1576109f1612465565b6020026020010151610305565b828281518110610a1057610a10612465565b6020908102919091010152610a2481612491565b90506109b9565b509392505050565b610a3b6110c9565b6004610a478282612358565b5050565b6060610a556110c9565b83518551148015610a67575082518451145b8015610a74575081518351145b610ab95760405162461bcd60e51b8152602060048201526016602482015275082e4e4c2f2e640d8cadccee8d040dad2e6dac2e8c6d60531b604482015260640161036c565b600085516001600160401b03811115610ad457610ad4611be0565b604051908082528060200260200182016040528015610afd578160200160208202803683370190505b509050600086516001600160401b03811115610b1b57610b1b611be0565b604051908082528060200260200182016040528015610b44578160200160208202803683370190505b50905060005b8751811015610cee576007805460009182610b6483612491565b91905055905060405180608001604052808a8481518110610b8757610b87612465565b60200260200101518152602001898481518110610ba657610ba6612465565b60200260200101518152602001888481518110610bc557610bc5612465565b60200260200101518152602001878481518110610be457610be4612465565b602090810291909101810151909152600083815260059091526040902081518190610c0f9082612358565b5060208201516001820190610c249082612358565b506040820151600282015560608201516003820190610c439082612358565b5090505080848381518110610c5a57610c5a612465565b6020026020010181815250506001838381518110610c7a57610c7a612465565b602002602001018181525050896001600160a01b03167f7fbea31a41e4f4754f08cfd66cdaefe83a7ac734cedc89c1b5d07919607803088260056000858152602001908152602001600020604051610cd3929190612527565b60405180910390a25080610ce681612491565b915050610b4a565b50610d0a888383604051806020016040528060008152506112bf565b509695505050505050565b60048054610d2290612251565b80601f0160208091040260200160405190810160405280929190818152602001828054610d4e90612251565b8015610d9b5780601f10610d7057610100808354040283529160200191610d9b565b820191906000526020600020905b815481529060010190602001808311610d7e57829003601f168201915b505050505081565b610dab6110c9565b610db5600061140a565b565b6000818152600560205260409020600301805460609190610dd790612251565b80601f0160208091040260200160405190810160405280929190818152602001828054610e0390612251565b8015610e505780601f10610e2557610100808354040283529160200191610e50565b820191906000526020600020905b815481529060010190602001808311610e3357829003601f168201915b50505050509050919050565b610a4733838361145c565b6001600160a01b038516331480610e835750610e83853361029e565b610e9f5760405162461bcd60e51b815260040161036c90612417565b610903858585858561153c565b610eb46110c9565b6001600160a01b038116610f195760405162461bcd60e51b815260206004820152602660248201527f4f776e61626c653a206e6577206f776e657220697320746865207a65726f206160448201526564647265737360d01b606482015260840161036c565b610f228161140a565b50565b6000610f2f6110c9565b6007805460009182610f4083612491565b90915550604080516080810182528881526020808201899052818301889052606082018790526000848152600590915291909120815192935090918190610f879082612358565b5060208201516001820190610f9c9082612358565b506040820151600282015560608201516003820190610fbb9082612358565b50905050610fdb8782600160405180602001604052806000815250611666565b6000818152600560205260409081902090516001600160a01b038916917f7fbea31a41e4f4754f08cfd66cdaefe83a7ac734cedc89c1b5d079196078030891611025918591612527565b60405180910390a29695505050505050565b6060600061104483611740565b60010190506000816001600160401b0381111561106357611063611be0565b6040519080825280601f01601f19166020018201604052801561108d576020820181803683370190505b5090508181016020015b600019016f181899199a1a9b1b9c1cb0b131b232b360811b600a86061a8153600a850494508461109757509392505050565b6003546001600160a01b03163314610db55760405162461bcd60e51b815260206004820181905260248201527f4f776e61626c653a2063616c6c6572206973206e6f7420746865206f776e6572604482015260640161036c565b81518351146111445760405162461bcd60e51b815260040161036c90612585565b6001600160a01b03841661116a5760405162461bcd60e51b815260040161036c906125cd565b3360005b845181101561125157600085828151811061118b5761118b612465565b6020026020010151905060008583815181106111a9576111a9612465565b602090810291909101810151600084815280835260408082206001600160a01b038e1683529093529190912054909150818110156111f95760405162461bcd60e51b815260040161036c90612612565b6000838152602081815260408083206001600160a01b038e8116855292528083208585039055908b1682528120805484929061123690849061265c565b925050819055505050508061124a90612491565b905061116e565b50846001600160a01b0316866001600160a01b0316826001600160a01b03167f4a39dc06d4c0dbc64b70af90fd698a233a518aa5d07e595d983b8c0526c8f7fb87876040516112a192919061266f565b60405180910390a46112b7818787878787611818565b505050505050565b6001600160a01b0384166112e55760405162461bcd60e51b815260040161036c90612694565b81518351146113065760405162461bcd60e51b815260040161036c90612585565b3360005b84518110156113a25783818151811061132557611325612465565b602002602001015160008087848151811061134257611342612465565b602002602001015181526020019081526020016000206000886001600160a01b03166001600160a01b03168152602001908152602001600020600082825461138a919061265c565b9091555081905061139a81612491565b91505061130a565b50846001600160a01b031660006001600160a01b0316826001600160a01b03167f4a39dc06d4c0dbc64b70af90fd698a233a518aa5d07e595d983b8c0526c8f7fb87876040516113f392919061266f565b60405180910390a461090381600087878787611818565b600380546001600160a01b038381166001600160a01b0319831681179093556040519116919082907f8be0079c531659141344cd1fd0a4f28419497f9722a3daafe3b4186f6b6457e090600090a35050565b816001600160a01b0316836001600160a01b0316036114cf5760405162461bcd60e51b815260206004820152602960248201527f455243313135353a2073657474696e6720617070726f76616c20737461747573604482015268103337b91039b2b63360b91b606482015260840161036c565b6001600160a01b03838116600081815260016020908152604080832094871680845294825291829020805460ff191686151590811790915591519182527f17307eab39ab6107e8899845ad3d59bd9653f200f220920489ca2b5937696c31910160405180910390a3505050565b6001600160a01b0384166115625760405162461bcd60e51b815260040161036c906125cd565b33600061156e85611973565b9050600061157b85611973565b90506000868152602081815260408083206001600160a01b038c168452909152902054858110156115be5760405162461bcd60e51b815260040161036c90612612565b6000878152602081815260408083206001600160a01b038d8116855292528083208985039055908a168252812080548892906115fb90849061265c565b909155505060408051888152602081018890526001600160a01b03808b16928c821692918816917fc3d58168c5ae7397731d063d5bbf3d657854427343f4c083240f7aacaa2d0f62910160405180910390a461165b848a8a8a8a8a6119be565b505050505050505050565b6001600160a01b03841661168c5760405162461bcd60e51b815260040161036c90612694565b33600061169885611973565b905060006116a585611973565b90506000868152602081815260408083206001600160a01b038b168452909152812080548792906116d790849061265c565b909155505060408051878152602081018790526001600160a01b03808a1692600092918716917fc3d58168c5ae7397731d063d5bbf3d657854427343f4c083240f7aacaa2d0f62910160405180910390a4611737836000898989896119be565b50505050505050565b60008072184f03e93ff9f4daa797ed6e38ed64bf6a1f0160401b831061177f5772184f03e93ff9f4daa797ed6e38ed64bf6a1f0160401b830492506040015b6d04ee2d6d415b85acef810000000083106117ab576d04ee2d6d415b85acef8100000000830492506020015b662386f26fc1000083106117c957662386f26fc10000830492506010015b6305f5e10083106117e1576305f5e100830492506008015b61271083106117f557612710830492506004015b60648310611807576064830492506002015b600a83106103985760010192915050565b6001600160a01b0384163b156112b75760405163bc197c8160e01b81526001600160a01b0385169063bc197c819061185c90899089908890889088906004016126d5565b6020604051808303816000875af1925050508015611897575060408051601f3d908101601f1916820190925261189491810190612733565b60015b611943576118a3612750565b806308c379a0036118dc57506118b761276c565b806118c257506118de565b8060405162461bcd60e51b815260040161036c9190611b62565b505b60405162461bcd60e51b815260206004820152603460248201527f455243313135353a207472616e7366657220746f206e6f6e2d455243313135356044820152732932b1b2b4bb32b91034b6b83632b6b2b73a32b960611b606482015260840161036c565b6001600160e01b0319811663bc197c8160e01b146117375760405162461bcd60e51b815260040161036c906127f5565b604080516001808252818301909252606091600091906020808301908036833701905050905082816000815181106119ad576119ad612465565b602090810291909101015292915050565b6001600160a01b0384163b156112b75760405163f23a6e6160e01b81526001600160a01b0385169063f23a6e6190611a02908990899088908890889060040161283d565b6020604051808303816000875af1925050508015611a3d575060408051601f3d908101601f19168201909252611a3a91810190612733565b60015b611a49576118a3612750565b6001600160e01b0319811663f23a6e6160e01b146117375760405162461bcd60e51b815260040161036c906127f5565b80356001600160a01b0381168114611a9057600080fd5b919050565b60008060408385031215611aa857600080fd5b611ab183611a79565b946020939093013593505050565b6001600160e01b031981168114610f2257600080fd5b600060208284031215611ae757600080fd5b8135611af281611abf565b9392505050565b600060208284031215611b0b57600080fd5b5035919050565b60005b83811015611b2d578181015183820152602001611b15565b50506000910152565b60008151808452611b4e816020860160208601611b12565b601f01601f19169290920160200192915050565b602081526000611af26020830184611b36565b602081526000825160806020840152611b9160a0840182611b36565b90506020840151601f1980858403016040860152611baf8383611b36565b925060408601516060860152606086015191508085840301608086015250611bd78282611b36565b95945050505050565b634e487b7160e01b600052604160045260246000fd5b601f8201601f191681016001600160401b0381118282101715611c1b57611c1b611be0565b6040525050565b600082601f830112611c3357600080fd5b81356001600160401b03811115611c4c57611c4c611be0565b604051611c63601f8301601f191660200182611bf6565b818152846020838601011115611c7857600080fd5b816020850160208301376000918101602001919091529392505050565b60008060408385031215611ca857600080fd5b8235915060208301356001600160401b03811115611cc557600080fd5b611cd185828601611c22565b9150509250929050565b608081526000611cee6080830187611b36565b8281036020840152611d008187611b36565b90508460408401528281036060840152611d1a8185611b36565b979650505050505050565b60006001600160401b03821115611d3e57611d3e611be0565b5060051b60200190565b600082601f830112611d5957600080fd5b81356020611d6682611d25565b604051611d738282611bf6565b83815260059390931b8501820192828101915086841115611d9357600080fd5b8286015b84811015610d0a5780358352918301918301611d97565b600080600080600060a08688031215611dc657600080fd5b611dcf86611a79565b9450611ddd60208701611a79565b935060408601356001600160401b0380821115611df957600080fd5b611e0589838a01611d48565b94506060880135915080821115611e1b57600080fd5b611e2789838a01611d48565b93506080880135915080821115611e3d57600080fd5b50611e4a88828901611c22565b9150509295509295909350565b60008060408385031215611e6a57600080fd5b82356001600160401b0380821115611e8157600080fd5b818501915085601f830112611e9557600080fd5b81356020611ea282611d25565b604051611eaf8282611bf6565b83815260059390931b8501820192828101915089841115611ecf57600080fd5b948201945b83861015611ef457611ee586611a79565b82529482019490820190611ed4565b96505086013592505080821115611f0a57600080fd5b50611cd185828601611d48565b600081518084526020808501945080840160005b83811015611f4757815187529582019590820190600101611f2b565b509495945050505050565b602081526000611af26020830184611f17565b600060208284031215611f7757600080fd5b81356001600160401b03811115611f8d57600080fd5b611f9984828501611c22565b949350505050565b600082601f830112611fb257600080fd5b81356020611fbf82611d25565b604051611fcc8282611bf6565b83815260059390931b8501820192828101915086841115611fec57600080fd5b8286015b84811015610d0a5780356001600160401b0381111561200f5760008081fd5b61201d8986838b0101611c22565b845250918301918301611ff0565b600080600080600060a0868803121561204357600080fd5b61204c86611a79565b945060208601356001600160401b038082111561206857600080fd5b61207489838a01611fa1565b9550604088013591508082111561208a57600080fd5b61209689838a01611fa1565b945060608801359150808211156120ac57600080fd5b6120b889838a01611d48565b935060808801359150808211156120ce57600080fd5b50611e4a88828901611fa1565b600080604083850312156120ee57600080fd5b6120f783611a79565b91506020830135801515811461210c57600080fd5b809150509250929050565b6000806040838503121561212a57600080fd5b61213383611a79565b915061214160208401611a79565b90509250929050565b600080600080600060a0868803121561216257600080fd5b61216b86611a79565b945061217960208701611a79565b9350604086013592506060860135915060808601356001600160401b038111156121a257600080fd5b611e4a88828901611c22565b6000602082840312156121c057600080fd5b611af282611a79565b600080600080600060a086880312156121e157600080fd5b6121ea86611a79565b945060208601356001600160401b038082111561220657600080fd5b61221289838a01611c22565b9550604088013591508082111561222857600080fd5b61223489838a01611c22565b9450606088013593506080880135915080821115611e3d57600080fd5b600181811c9082168061226557607f821691505b60208210810361228557634e487b7160e01b600052602260045260246000fd5b50919050565b600080845461229981612251565b600182811680156122b157600181146122c6576122f5565b60ff19841687528215158302870194506122f5565b8860005260208060002060005b858110156122ec5781548a8201529084019082016122d3565b50505082870194505b505050508351612309818360208801611b12565b01949350505050565b601f8211156106f957600081815260208120601f850160051c810160208610156123395750805b601f850160051c820191505b818110156112b757828155600101612345565b81516001600160401b0381111561237157612371611be0565b6123858161237f8454612251565b84612312565b602080601f8311600181146123ba57600084156123a25750858301515b600019600386901b1c1916600185901b1785556112b7565b600085815260208120601f198616915b828110156123e9578886015182559484019460019091019084016123ca565b50858210156124075787850151600019600388901b60f8161c191681555b5050505050600190811b01905550565b6020808252602e908201527f455243313135353a2063616c6c6572206973206e6f7420746f6b656e206f776e60408201526d195c881bdc88185c1c1c9bdd995960921b606082015260800190565b634e487b7160e01b600052603260045260246000fd5b634e487b7160e01b600052601160045260246000fd5b6000600182016124a3576124a361247b565b5060010190565b600081546124b781612251565b8085526020600183811680156124d457600181146124ee5761251c565b60ff1985168884015283151560051b88018301955061251c565b866000528260002060005b858110156125145781548a82018601529083019084016124f9565b890184019650505b505050505092915050565b8281526040602082015260806040820152600061254760c08301846124aa565b603f198084830301606085015261256182600187016124aa565b915060028501546080850152808483030160a085015250611bd781600386016124aa565b60208082526028908201527f455243313135353a2069647320616e6420616d6f756e7473206c656e677468206040820152670dad2e6dac2e8c6d60c31b606082015260800190565b60208082526025908201527f455243313135353a207472616e7366657220746f20746865207a65726f206164604082015264647265737360d81b606082015260800190565b6020808252602a908201527f455243313135353a20696e73756666696369656e742062616c616e636520666f60408201526939103a3930b739b332b960b11b606082015260800190565b808201808211156103985761039861247b565b6040815260006126826040830185611f17565b8281036020840152611bd78185611f17565b60208082526021908201527f455243313135353a206d696e7420746f20746865207a65726f206164647265736040820152607360f81b606082015260800190565b6001600160a01b0386811682528516602082015260a06040820181905260009061270190830186611f17565b82810360608401526127138186611f17565b905082810360808401526127278185611b36565b98975050505050505050565b60006020828403121561274557600080fd5b8151611af281611abf565b600060033d11156127695760046000803e5060005160e01c5b90565b600060443d101561277a5790565b6040516003193d81016004833e81513d6001600160401b0381602484011181841117156127a957505050505090565b82850191508151818111156127c15750505050505090565b843d87010160208285010111156127db5750505050505090565b6127ea60208286010187611bf6565b509095945050505050565b60208082526028908201527f455243313135353a204552433131353552656365697665722072656a656374656040820152676420746f6b656e7360c01b606082015260800190565b6001600160a01b03868116825285166020820152604081018490526060810183905260a060808201819052600090611d1a90830184611b3656fea2646970667358221220f26e25091f420cf8bbc5aebc80e05e4d99c924b6255d2debd7f929ffc728713864736f6c63430008130033",
  "linkReferences": {},
  "deployedLinkReferences": {}
}