{
  "_format": "hh-sol-artifact-1",
  "contractName": "SkinNFT",
  "sourceName": "contracts/SkinNFT.sol",
  "abi": [
    {
      "inputs": [
        {
          "internalType": "string",
          "name": "_baseURI",
          "type": "string"
        }
      ],
      "stateMutability": "nonpayable",
      "type": "constructor"
    },
    {
      "anonymous": false,
      "inputs": [
        {
          "indexed": true,
          "internalType": "address",
          "name": "account",
          "type": "address"
        },
        {
          "indexed": true,
          "internalType": "address",
          "name": "operator",
          "type": "address"
        },
        {
          "indexed": false,
          "internalType": "bool",
          "name": "approved",
          "type": "bool"
        }
      ],
      "name": "ApprovalForAll",
      "type": "event"
    },
    {
      "anonymous": false,
      "inputs": [
        {
          "indexed": true,
          "internalType": "address",
          "name": "previousOwner",
          "type": "address"
        },
        {
          "indexed": true,
          "internalType": "address",
          "name": "newOwner",
          "type": "address"
        }
      ],
      "name": "OwnershipTransferred",
      "type": "event"
    },
    {
      "anonymous": false,
      "inputs": [
        {
          "indexed": true,
          "internalType": "address",
          "name": "user",
          "type": "address"
        },
        {
          "indexed": false,
          "internalType": "uint256",
          "name": "petTokenId",
          "type": "uint256"
        },
        {
          "indexed": false,
          "internalType": "uint256",
          "name": "skinType",
          "type": "uint256"
        }
      ],
      "name": "SkinApplied",
      "type": "event"
    },
    {
      "anonymous": false,
      "inputs": [
        {
          "indexed": true,
          "internalType": "address",
          "name": "to",
          "type": "address"
        },
        {
          "indexed": false,
          "internalType": "uint256",
          "name": "skinType",
          "type": "uint256"
        },
        {
          "indexed": false,
          "internalType": "uint256",
          "name": "amount",
          "type": "uint256"
        },
        {
          "indexed": false,
          "internalType": "string",
          "name": "skinName",
          "type": "string"
        }
      ],
      "name": "SkinMinted",
      "type": "event"
    },
    {
      "anonymous": false,
      "inputs": [
        {
          "indexed": true,
          "internalType": "address",
          "name": "operator",
          "type": "address"
        },
        {
          "indexed": true,
          "internalType": "address",
          "name": "from",
          "type": "address"
        },
        {
          "indexed": true,
          "internalType": "address",
          "name": "to",
          "type": "address"
        },
        {
          "indexed": false,
          "internalType": "uint256[]",
          "name": "ids",
          "type": "uint256[]"
        },
        {
          "indexed": false,
          "internalType": "uint256[]",
          "name": "values",
          "type": "uint256[]"
        }
      ],
      "name": "TransferBatch",
      "type": "event"
    },
    {
      "anonymous": false,
      "inputs": [
        {
          "indexed": true,
          "internalType": "address",
          "name": "operator",
          "type": "address"
        },
        {
          "indexed": true,
          "internalType": "address",
          "name": "from",
          "type": "address"
        },
        {
          "indexed": true,
          "internalType": "address",
          "name": "to",
          "type": "address"
        },
        {
          "indexed": false,
          "internalType": "uint256",
          "name": "id",
          "type": "uint256"
        },
        {
          "indexed": false,
          "internalType": "uint256",
          "name": "value",
          "type": "uint256"
        }
      ],
      "name": "TransferSingle",
      "type": "event"
    },
    {
      "anonymous": false,
      "inputs": [
        {
          "indexed": false,
          "internalType": "string",
          "name": "value",
          "type": "string"
        },
        {
          "indexed": true,
          "internalType": "uint256",
          "name": "id",
          "type": "uint256"
        }
      ],
      "name": "URI",
      "type": "event"
    },
    {
      "inputs": [],
      "name": "CLASSIC_SKIN",
      "outputs": [
        {
          "internalType": "uint256",
          "name": "",
          "type": "uint256"
        }
      ],
      "stateMutability": "view",
      "type": "function"
    },
    {
      "inputs": [],
      "name": "EPIC_SKIN",
      "outputs": [
        {
          "internalType": "uint256",
          "name": "",
          "type": "uint256"
        }
      ],
      "stateMutability": "view",
      "type": "function"
    },
    {
      "inputs": [],
      "name": "LEGENDARY_SKIN",
      "outputs": [
        {
          "internalType": "uint256",
          "name": "",
          "type": "uint256"
        }
      ],
      "stateMutability": "view",
      "type": "function"
    },
    {
      "inputs": [],
      "name": "MYTHIC_SKIN",
      "outputs": [
        {
          "internalType": "uint256",
          "name": "",
          "type": "uint256"
        }
      ],
      "stateMutability": "view",
      "type": "function"
    },
    {
      "inputs": [
        {
          "internalType": "address",
          "name": "account",
          "type": "address"
        },
        {
          "internalType": "uint256",
          "name": "id",
          "type": "uint256"
        }
      ],
      "name": "balanceOf",
      "outputs": [
        {
          "internalType": "uint256",
          "name": "",
          "type": "uint256"
        }
      ],
      "stateMutability": "view",
      "type": "function"
    },
    {
      "inputs": [
        {
          "internalType": "address[]",
          "name": "accounts",
          "type": "address[]"
        },
        {
          "internalType": "uint256[]",
          "name": "ids",
          "type": "uint256[]"
        }
      ],
      "name": "balanceOfBatch",
      "outputs": [
        {
          "internalType": "uint256[]",
          "name": "",
          "type": "uint256[]"
        }
      ],
      "stateMutability": "view",
      "type": "function"
    },
    {
      "inputs": [],
      "name": "baseURI",
      "outputs": [
        {
          "internalType": "string",
          "name": "",
          "type": "string"
        }
      ],
      "stateMutability": "view",
      "type": "function"
    },
    {
      "inputs": [
        {
          "internalType": "uint256",
          "name": "skinType",
          "type": "uint256"
        }
      ],
      "name": "getSkinName",
      "outputs": [
        {
          "internalType": "string",
          "name": "",
          "type": "string"
        }
      ],
      "stateMutability": "view",
      "type": "function"
    },
    {
      "inputs": [
        {
          "internalType": "uint256",
          "name": "skinType",
          "type": "uint256"
        }
      ],
      "name": "getSkinRarity",
      "outputs": [
        {
          "internalType": "string",
          "name": "",
          "type": "string"
        }
      ],
      "stateMutability": "pure",
      "type": "function"
    },
    {
      "inputs": [
        {
          "internalType": "address",
          "name": "account",
          "type": "address"
        },
        {
          "internalType": "address",
          "name": "operator",
          "type": "address"
        }
      ],
      "name": "isApprovedForAll",
      "outputs": [
        {
          "internalType": "bool",
          "name": "",
          "type": "bool"
        }
      ],
      "stateMutability": "view",
      "type": "function"
    },
    {
      "inputs": [
        {
          "internalType": "address",
          "name": "to",
          "type": "address"
        },
        {
          "internalType": "uint256",
          "name": "skinType",
          "type": "uint256"
        },
        {
          "internalType": "uint256",
          "name": "amount",
          "type": "uint256"
        },
        {
          "internalType": "string",
          "name": "skinName",
          "type": "string"
        }
      ],
      "name": "mint",
      "outputs": [],
      "stateMutability": "nonpayable",
      "type": "function"
    },
    {
      "inputs": [
        {
          "internalType": "address",
          "name": "to",
          "type": "address"
        },
        {
          "internalType": "uint256[]",
          "name": "skinTypes",
          "type": "uint256[]"
        },
        {
          "internalType": "uint256[]",
          "name": "amounts",
          "type": "uint256[]"
        },
        {
          "internalType": "string[]",
          "name": "skinNames",
          "type": "string[]"
        }
      ],
      "name": "mintBatch",
      "outputs": [],
      "stateMutability": "nonpayable",
      "type": "function"
    },
    {
      "inputs": [],
      "name": "owner",
      "outputs": [
        {
          "internalType": "address",
          "name": "",
          "type": "address"
        }
      ],
      "stateMutability": "view",
      "type": "function"
    },
    {
      "inputs": [],
      "name": "renounceOwnership",
      "outputs": [],
      "stateMutability": "nonpayable",
      "type": "function"
    },
    {
      "inputs": [
        {
          "internalType": "address",
          "name": "from",
          "type": "address"
        },
        {
          "internalType": "address",
          "name": "to",
          "type": "address"
        },
        {
          "internalType": "uint256[]",
          "name": "ids",
          "type": "uint256[]"
        },
        {
          "internalType": "uint256[]",
          "name": "amounts",
          "type": "uint256[]"
        },
        {
          "internalType": "bytes",
          "name": "data",
          "type": "bytes"
        }
      ],
      "name": "safeBatchTransferFrom",
      "outputs": [],
      "stateMutability": "nonpayable",
      "type": "function"
    },
    {
      "inputs": [
        {
          "internalType": "address",
          "name": "from",
          "type": "address"
        },
        {
          "internalType": "address",
          "name": "to",
          "type": "address"
        },
        {
          "internalType": "uint256",
          "name": "id",
          "type": "uint256"
        },
        {
          "internalType": "uint256",
          "name": "amount",
          "type": "uint256"
        },
        {
          "internalType": "bytes",
          "name": "data",
          "type": "bytes"
        }
      ],
      "name": "safeTransferFrom",
      "outputs": [],
      "stateMutability": "nonpayable",
      "type": "function"
    },
    {
      "inputs": [
        {
          "internalType": "address",
          "name": "operator",
          "type": "address"
        },
        {
          "internalType": "bool",
          "name": "approved",
          "type": "bool"
        }
      ],
      "name": "setApprovalForAll",
      "outputs": [],
      "stateMutability": "nonpayable",
      "type": "function"
    },
    {
      "inputs": [
        {
          "internalType": "string",
          "name": "_baseURI",
          "type": "string"
        }
      ],
      "name": "setBaseURI",
      "outputs": [],
      "stateMutability": "nonpayable",
      "type": "function"
    },
    {
      "inputs": [
        {
          "internalType": "uint256",
          "name": "skinType",
          "type": "uint256"
        },
        {
          "internalType": "string",
          "name": "skinName",
          "type": "string"
        }
      ],
      "name": "setSkinName",
      "outputs": [],
      "stateMutability": "nonpayable",
      "type": "function"
    },
    {
      "inputs": [
        {
          "internalType": "uint256",
          "name": "tokenId",
          "type": "uint256"
        },
        {
          "internalType": "string",
          "name": "tokenURI",
          "type": "string"
        }
      ],
      "name": "setTokenURI",
      "outputs": [],
      "stateMutability": "nonpayable",
      "type": "function"
    },
    {
      "inputs": [
        {
          "internalType": "bytes4",
          "name": "interfaceId",
          "type": "bytes4"
        }
      ],
      "name": "supportsInterface",
      "outputs": [
        {
          "internalType": "bool",
          "name": "",
          "type": "bool"
        }
      ],
      "stateMutability": "view",
      "type": "function"
    },
    {
      "inputs": [
        {
          "internalType": "address",
          "name": "newOwner",
          "type": "address"
        }
      ],
      "name": "transferOwnership",
      "outputs": [],
      "stateMutability": "nonpayable",
      "type": "function"
    },
    {
      "inputs": [
        {
          "internalType": "uint256",
          "name": "tokenId",
          "type": "uint256"
        }
      ],
      "name": "uri",
      "outputs": [
        {
          "internalType": "string",
          "name": "",
          "type": "string"
        }
      ],
      "stateMutability": "view",
      "type": "function"
    }
  ],
  "bytecode": "0x60806040523480156200001157600080fd5b506040516200276038038062002760833981016040819052620000349162000256565b806200004081620001dc565b506200004c33620001ee565b60046200005a8282620003ba565b5060408051808201909152600b81526a26bcba3434b19029b5b4b760a91b6020808301919091526001600052600690527f3e5fec24aa4dc4e5aee2e025e51e1392c72a2500577559fae9665c6d52bd6a3190620000b89082620003ba565b5060408051808201909152600e81526d2632b3b2b73230b93c9029b5b4b760911b6020808301919091526002600052600690527f8819ef417987f8ae7a81f42cdfb18815282fe989326fbff903d13cf0e03ace2990620001199082620003ba565b5060408051808201909152600981526822b834b19029b5b4b760b91b6020808301919091526003600052600690527f75f96ab15d697e93042dc45b5c896c4b27e89bb6eaf39475c5c371cb2513f7d290620001759082620003ba565b5060408051808201909152600c81526b21b630b9b9b4b19029b5b4b760a11b6020808301919091526004600052600690527fc5069e24aaadb2addc3e52e868fcf3f4f8acf5a87e24300992fd4540c2a87eed90620001d49082620003ba565b505062000486565b6002620001ea8282620003ba565b5050565b600380546001600160a01b038381166001600160a01b0319831681179093556040519116919082907f8be0079c531659141344cd1fd0a4f28419497f9722a3daafe3b4186f6b6457e090600090a35050565b634e487b7160e01b600052604160045260246000fd5b600060208083850312156200026a57600080fd5b82516001600160401b03808211156200028257600080fd5b818501915085601f8301126200029757600080fd5b815181811115620002ac57620002ac62000240565b604051601f8201601f19908116603f01168101908382118183101715620002d757620002d762000240565b816040528281528886848701011115620002f057600080fd5b600093505b82841015620003145784840186015181850187015292850192620002f5565b600086848301015280965050505050505092915050565b600181811c908216806200034057607f821691505b6020821081036200036157634e487b7160e01b600052602260045260246000fd5b50919050565b601f821115620003b557600081815260208120601f850160051c81016020861015620003905750805b601f850160051c820191505b81811015620003b1578281556001016200039c565b5050505b505050565b81516001600160401b03811115620003d657620003d662000240565b620003ee81620003e784546200032b565b8462000367565b602080601f8311600181146200042657600084156200040d5750858301515b600019600386901b1c1916600185901b178555620003b1565b600085815260208120601f198616915b82811015620004575788860151825594840194600190910190840162000436565b5085821015620004765787850151600019600388901b60f8161c191681555b5050505050600190811b01905550565b6122ca80620004966000396000f3fe608060405234801561001057600080fd5b506004361061014c5760003560e01c8063715018a6116100c3578063aee2c3de1161007c578063aee2c3de146102a4578063b237d979146102ac578063bb7fde71146102bf578063e985e9c5146102d2578063f242432a1461030e578063f2fde38b1461032157600080fd5b8063715018a6146102405780638da5cb5b146102485780639606880f14610263578063a06889b814610276578063a22cb4651461027e578063a55784ef1461029157600080fd5b806341000e911161011557806341000e91146101e25780634e1273f4146101ea57806355f804b31461020a57806356f485431461021d57806358e113d1146102255780636c0360eb1461023857600080fd5b8062fdd58e1461015157806301ffc9a7146101775780630e89341c1461019a578063162094c4146101ba5780632eb2c2d6146101cf575b600080fd5b61016461015f366004611651565b610334565b6040519081526020015b60405180910390f35b61018a610185366004611691565b6103cd565b604051901515815260200161016e565b6101ad6101a83660046116b5565b61041d565b60405161016e919061171e565b6101cd6101c83660046117e6565b6104fe565b005b6101cd6101dd3660046118c0565b610523565b610164600381565b6101fd6101f8366004611969565b61056f565b60405161016e9190611a64565b6101cd610218366004611a77565b610698565b610164600181565b6101ad6102333660046116b5565b6106b0565b6101ad61077f565b6101cd61080d565b6003546040516001600160a01b03909116815260200161016e565b6101cd6102713660046117e6565b610821565b610164600481565b6101cd61028c366004611ab3565b610841565b6101cd61029f366004611aef565b61084c565b610164600281565b6101ad6102ba3660046116b5565b6109ba565b6101cd6102cd366004611c04565b610a5c565b61018a6102e0366004611c64565b6001600160a01b03918216600090815260016020908152604080832093909416825291909152205460ff1690565b6101cd61031c366004611c97565b610b35565b6101cd61032f366004611cfb565b610b7a565b60006001600160a01b0383166103a45760405162461bcd60e51b815260206004820152602a60248201527f455243313135353a2061646472657373207a65726f206973206e6f742061207660448201526930b634b21037bbb732b960b11b60648201526084015b60405180910390fd5b506000818152602081815260408083206001600160a01b03861684529091529020545b92915050565b60006001600160e01b03198216636cdb3d1360e11b14806103fe57506001600160e01b031982166303a24d0760e21b145b806103c757506301ffc9a760e01b6001600160e01b03198316146103c7565b60008181526005602052604081208054606092919061043b90611d16565b80601f016020809104026020016040519081016040528092919081815260200182805461046790611d16565b80156104b45780601f10610489576101008083540402835291602001916104b4565b820191906000526020600020905b81548152906001019060200180831161049757829003601f168201915b505050505090506000815111156104cb5792915050565b60046104d684610bf3565b6040516020016104e7929190611d50565b604051602081830303815290604052915050919050565b610506610c85565b600082815260056020526040902061051e8282611e1d565b505050565b6001600160a01b03851633148061053f575061053f85336102e0565b61055b5760405162461bcd60e51b815260040161039b90611edc565b6105688585858585610cdf565b5050505050565b606081518351146105d45760405162461bcd60e51b815260206004820152602960248201527f455243313135353a206163636f756e747320616e6420696473206c656e677468604482015268040dad2e6dac2e8c6d60bb1b606482015260840161039b565b600083516001600160401b038111156105ef576105ef611731565b604051908082528060200260200182016040528015610618578160200160208202803683370190505b50905060005b84518110156106905761066385828151811061063c5761063c611f2a565b602002602001015185838151811061065657610656611f2a565b6020026020010151610334565b82828151811061067557610675611f2a565b602090810291909101015261068981611f56565b905061061e565b509392505050565b6106a0610c85565b60046106ac8282611e1d565b5050565b6060600182036106dc5750506040805180820190915260068152654d797468696360d01b602082015290565b600282036107095750506040805180820190915260098152684c6567656e6461727960b81b602082015290565b600382036107315750506040805180820190915260048152634570696360e01b602082015290565b6004820361075c575050604080518082019091526007815266436c617373696360c81b602082015290565b50506040805180820190915260078152662ab735b737bbb760c91b602082015290565b6004805461078c90611d16565b80601f01602080910402602001604051908101604052809291908181526020018280546107b890611d16565b80156108055780601f106107da57610100808354040283529160200191610805565b820191906000526020600020905b8154815290600101906020018083116107e857829003601f168201915b505050505081565b610815610c85565b61081f6000610e7b565b565b610829610c85565b600082815260066020526040902061051e8282611e1d565b6106ac338383610ecd565b610854610c85565b805183511461089e5760405162461bcd60e51b8152602060048201526016602482015275082e4e4c2f2e640d8cadccee8d040dad2e6dac2e8c6d60531b604482015260640161039b565b6108b984848460405180602001604052806000815250610fad565b60005b8351811015610568578181815181106108d7576108d7611f2a565b6020026020010151600660008684815181106108f5576108f5611f2a565b6020026020010151815260200190815260200160002090816109179190611e1d565b50846001600160a01b03167fe3bb5ba6bb5e2a5b7eb26621760d32a199d5cfdb17597a972d8b7aef35322bcf85838151811061095557610955611f2a565b602002602001015185848151811061096f5761096f611f2a565b602002602001015185858151811061098957610989611f2a565b60200260200101516040516109a093929190611f6f565b60405180910390a2806109b281611f56565b9150506108bc565b60008181526006602052604090208054606091906109d790611d16565b80601f0160208091040260200160405190810160405280929190818152602001828054610a0390611d16565b8015610a505780601f10610a2557610100808354040283529160200191610a50565b820191906000526020600020905b815481529060010190602001808311610a3357829003601f168201915b50505050509050919050565b610a64610c85565b60018310158015610a76575060048311155b610ab65760405162461bcd60e51b8152602060048201526011602482015270496e76616c696420736b696e207479706560781b604482015260640161039b565b610ad1848484604051806020016040528060008152506110f8565b6000838152600660205260409020610ae98282611e1d565b50836001600160a01b03167fe3bb5ba6bb5e2a5b7eb26621760d32a199d5cfdb17597a972d8b7aef35322bcf848484604051610b2793929190611f6f565b60405180910390a250505050565b6001600160a01b038516331480610b515750610b5185336102e0565b610b6d5760405162461bcd60e51b815260040161039b90611edc565b61056885858585856111d2565b610b82610c85565b6001600160a01b038116610be75760405162461bcd60e51b815260206004820152602660248201527f4f776e61626c653a206e6577206f776e657220697320746865207a65726f206160448201526564647265737360d01b606482015260840161039b565b610bf081610e7b565b50565b60606000610c00836112fc565b60010190506000816001600160401b03811115610c1f57610c1f611731565b6040519080825280601f01601f191660200182016040528015610c49576020820181803683370190505b5090508181016020015b600019016f181899199a1a9b1b9c1cb0b131b232b360811b600a86061a8153600a8504945084610c5357509392505050565b6003546001600160a01b0316331461081f5760405162461bcd60e51b815260206004820181905260248201527f4f776e61626c653a2063616c6c6572206973206e6f7420746865206f776e6572604482015260640161039b565b8151835114610d005760405162461bcd60e51b815260040161039b90611f97565b6001600160a01b038416610d265760405162461bcd60e51b815260040161039b90611fdf565b3360005b8451811015610e0d576000858281518110610d4757610d47611f2a565b602002602001015190506000858381518110610d6557610d65611f2a565b602090810291909101810151600084815280835260408082206001600160a01b038e168352909352919091205490915081811015610db55760405162461bcd60e51b815260040161039b90612024565b6000838152602081815260408083206001600160a01b038e8116855292528083208585039055908b16825281208054849290610df290849061206e565b9250508190555050505080610e0690611f56565b9050610d2a565b50846001600160a01b0316866001600160a01b0316826001600160a01b03167f4a39dc06d4c0dbc64b70af90fd698a233a518aa5d07e595d983b8c0526c8f7fb8787604051610e5d929190612081565b60405180910390a4610e738187878787876113d4565b505050505050565b600380546001600160a01b038381166001600160a01b0319831681179093556040519116919082907f8be0079c531659141344cd1fd0a4f28419497f9722a3daafe3b4186f6b6457e090600090a35050565b816001600160a01b0316836001600160a01b031603610f405760405162461bcd60e51b815260206004820152602960248201527f455243313135353a2073657474696e6720617070726f76616c20737461747573604482015268103337b91039b2b63360b91b606482015260840161039b565b6001600160a01b03838116600081815260016020908152604080832094871680845294825291829020805460ff191686151590811790915591519182527f17307eab39ab6107e8899845ad3d59bd9653f200f220920489ca2b5937696c31910160405180910390a3505050565b6001600160a01b038416610fd35760405162461bcd60e51b815260040161039b906120a6565b8151835114610ff45760405162461bcd60e51b815260040161039b90611f97565b3360005b84518110156110905783818151811061101357611013611f2a565b602002602001015160008087848151811061103057611030611f2a565b602002602001015181526020019081526020016000206000886001600160a01b03166001600160a01b031681526020019081526020016000206000828254611078919061206e565b9091555081905061108881611f56565b915050610ff8565b50846001600160a01b031660006001600160a01b0316826001600160a01b03167f4a39dc06d4c0dbc64b70af90fd698a233a518aa5d07e595d983b8c0526c8f7fb87876040516110e1929190612081565b60405180910390a4610568816000878787876113d4565b6001600160a01b03841661111e5760405162461bcd60e51b815260040161039b906120a6565b33600061112a8561152f565b905060006111378561152f565b90506000868152602081815260408083206001600160a01b038b1684529091528120805487929061116990849061206e565b909155505060408051878152602081018790526001600160a01b03808a1692600092918716917fc3d58168c5ae7397731d063d5bbf3d657854427343f4c083240f7aacaa2d0f62910160405180910390a46111c98360008989898961157a565b50505050505050565b6001600160a01b0384166111f85760405162461bcd60e51b815260040161039b90611fdf565b3360006112048561152f565b905060006112118561152f565b90506000868152602081815260408083206001600160a01b038c168452909152902054858110156112545760405162461bcd60e51b815260040161039b90612024565b6000878152602081815260408083206001600160a01b038d8116855292528083208985039055908a1682528120805488929061129190849061206e565b909155505060408051888152602081018890526001600160a01b03808b16928c821692918816917fc3d58168c5ae7397731d063d5bbf3d657854427343f4c083240f7aacaa2d0f62910160405180910390a46112f1848a8a8a8a8a61157a565b505050505050505050565b60008072184f03e93ff9f4daa797ed6e38ed64bf6a1f0160401b831061133b5772184f03e93ff9f4daa797ed6e38ed64bf6a1f0160401b830492506040015b6d04ee2d6d415b85acef81000000008310611367576d04ee2d6d415b85acef8100000000830492506020015b662386f26fc10000831061138557662386f26fc10000830492506010015b6305f5e100831061139d576305f5e100830492506008015b61271083106113b157612710830492506004015b606483106113c3576064830492506002015b600a83106103c75760010192915050565b6001600160a01b0384163b15610e735760405163bc197c8160e01b81526001600160a01b0385169063bc197c819061141890899089908890889088906004016120e7565b6020604051808303816000875af1925050508015611453575060408051601f3d908101601f1916820190925261145091810190612145565b60015b6114ff5761145f612162565b806308c379a003611498575061147361217e565b8061147e575061149a565b8060405162461bcd60e51b815260040161039b919061171e565b505b60405162461bcd60e51b815260206004820152603460248201527f455243313135353a207472616e7366657220746f206e6f6e2d455243313135356044820152732932b1b2b4bb32b91034b6b83632b6b2b73a32b960611b606482015260840161039b565b6001600160e01b0319811663bc197c8160e01b146111c95760405162461bcd60e51b815260040161039b90612207565b6040805160018082528183019092526060916000919060208083019080368337019050509050828160008151811061156957611569611f2a565b602090810291909101015292915050565b6001600160a01b0384163b15610e735760405163f23a6e6160e01b81526001600160a01b0385169063f23a6e61906115be908990899088908890889060040161224f565b6020604051808303816000875af19250505080156115f9575060408051601f3d908101601f191682019092526115f691810190612145565b60015b6116055761145f612162565b6001600160e01b0319811663f23a6e6160e01b146111c95760405162461bcd60e51b815260040161039b90612207565b80356001600160a01b038116811461164c57600080fd5b919050565b6000806040838503121561166457600080fd5b61166d83611635565b946020939093013593505050565b6001600160e01b031981168114610bf057600080fd5b6000602082840312156116a357600080fd5b81356116ae8161167b565b9392505050565b6000602082840312156116c757600080fd5b5035919050565b60005b838110156116e95781810151838201526020016116d1565b50506000910152565b6000815180845261170a8160208601602086016116ce565b601f01601f19169290920160200192915050565b6020815260006116ae60208301846116f2565b634e487b7160e01b600052604160045260246000fd5b601f8201601f191681016001600160401b038111828210171561176c5761176c611731565b6040525050565b600082601f83011261178457600080fd5b81356001600160401b0381111561179d5761179d611731565b6040516117b4601f8301601f191660200182611747565b8181528460208386010111156117c957600080fd5b816020850160208301376000918101602001919091529392505050565b600080604083850312156117f957600080fd5b8235915060208301356001600160401b0381111561181657600080fd5b61182285828601611773565b9150509250929050565b60006001600160401b0382111561184557611845611731565b5060051b60200190565b600082601f83011261186057600080fd5b8135602061186d8261182c565b60405161187a8282611747565b83815260059390931b850182019282810191508684111561189a57600080fd5b8286015b848110156118b5578035835291830191830161189e565b509695505050505050565b600080600080600060a086880312156118d857600080fd5b6118e186611635565b94506118ef60208701611635565b935060408601356001600160401b038082111561190b57600080fd5b61191789838a0161184f565b9450606088013591508082111561192d57600080fd5b61193989838a0161184f565b9350608088013591508082111561194f57600080fd5b5061195c88828901611773565b9150509295509295909350565b6000806040838503121561197c57600080fd5b82356001600160401b038082111561199357600080fd5b818501915085601f8301126119a757600080fd5b813560206119b48261182c565b6040516119c18282611747565b83815260059390931b85018201928281019150898411156119e157600080fd5b948201945b83861015611a06576119f786611635565b825294820194908201906119e6565b96505086013592505080821115611a1c57600080fd5b506118228582860161184f565b600081518084526020808501945080840160005b83811015611a5957815187529582019590820190600101611a3d565b509495945050505050565b6020815260006116ae6020830184611a29565b600060208284031215611a8957600080fd5b81356001600160401b03811115611a9f57600080fd5b611aab84828501611773565b949350505050565b60008060408385031215611ac657600080fd5b611acf83611635565b915060208301358015158114611ae457600080fd5b809150509250929050565b60008060008060808587031215611b0557600080fd5b611b0e85611635565b93506020808601356001600160401b0380821115611b2b57600080fd5b611b3789838a0161184f565b95506040880135915080821115611b4d57600080fd5b611b5989838a0161184f565b94506060880135915080821115611b6f57600080fd5b818801915088601f830112611b8357600080fd5b8135611b8e8161182c565b604051611b9b8282611747565b82815260059290921b840185019185810191508b831115611bbb57600080fd5b8585015b83811015611bf357803585811115611bd75760008081fd5b611be58e89838a0101611773565b845250918601918601611bbf565b50989b979a50959850505050505050565b60008060008060808587031215611c1a57600080fd5b611c2385611635565b9350602085013592506040850135915060608501356001600160401b03811115611c4c57600080fd5b611c5887828801611773565b91505092959194509250565b60008060408385031215611c7757600080fd5b611c8083611635565b9150611c8e60208401611635565b90509250929050565b600080600080600060a08688031215611caf57600080fd5b611cb886611635565b9450611cc660208701611635565b9350604086013592506060860135915060808601356001600160401b03811115611cef57600080fd5b61195c88828901611773565b600060208284031215611d0d57600080fd5b6116ae82611635565b600181811c90821680611d2a57607f821691505b602082108103611d4a57634e487b7160e01b600052602260045260246000fd5b50919050565b6000808454611d5e81611d16565b60018281168015611d765760018114611d8b57611dba565b60ff1984168752821515830287019450611dba565b8860005260208060002060005b85811015611db15781548a820152908401908201611d98565b50505082870194505b505050508351611dce8183602088016116ce565b01949350505050565b601f82111561051e57600081815260208120601f850160051c81016020861015611dfe5750805b601f850160051c820191505b81811015610e7357828155600101611e0a565b81516001600160401b03811115611e3657611e36611731565b611e4a81611e448454611d16565b84611dd7565b602080601f831160018114611e7f5760008415611e675750858301515b600019600386901b1c1916600185901b178555610e73565b600085815260208120601f198616915b82811015611eae57888601518255948401946001909101908401611e8f565b5085821015611ecc5787850151600019600388901b60f8161c191681555b5050505050600190811b01905550565b6020808252602e908201527f455243313135353a2063616c6c6572206973206e6f7420746f6b656e206f776e60408201526d195c881bdc88185c1c1c9bdd995960921b606082015260800190565b634e487b7160e01b600052603260045260246000fd5b634e487b7160e01b600052601160045260246000fd5b600060018201611f6857611f68611f40565b5060010190565b838152826020820152606060408201526000611f8e60608301846116f2565b95945050505050565b60208082526028908201527f455243313135353a2069647320616e6420616d6f756e7473206c656e677468206040820152670dad2e6dac2e8c6d60c31b606082015260800190565b60208082526025908201527f455243313135353a207472616e7366657220746f20746865207a65726f206164604082015264647265737360d81b606082015260800190565b6020808252602a908201527f455243313135353a20696e73756666696369656e742062616c616e636520666f60408201526939103a3930b739b332b960b11b606082015260800190565b808201808211156103c7576103c7611f40565b6040815260006120946040830185611a29565b8281036020840152611f8e8185611a29565b60208082526021908201527f455243313135353a206d696e7420746f20746865207a65726f206164647265736040820152607360f81b606082015260800190565b6001600160a01b0386811682528516602082015260a06040820181905260009061211390830186611a29565b82810360608401526121258186611a29565b9050828103608084015261213981856116f2565b98975050505050505050565b60006020828403121561215757600080fd5b81516116ae8161167b565b600060033d111561217b5760046000803e5060005160e01c5b90565b600060443d101561218c5790565b6040516003193d81016004833e81513d6001600160401b0381602484011181841117156121bb57505050505090565b82850191508151818111156121d35750505050505090565b843d87010160208285010111156121ed5750505050505090565b6121fc60208286010187611747565b509095945050505050565b60208082526028908201527f455243313135353a204552433131353552656365697665722072656a656374656040820152676420746f6b656e7360c01b606082015260800190565b6001600160a01b03868116825285166020820152604081018490526060810183905260a060808201819052600090612289908301846116f2565b97965050505050505056fea2646970667358221220d8102bf8a437a0062de9cc8d53a477f9e6e367a894830206bc889abd4f46b8b764736f6c63430008130033",
  "linkReferences": {},
  "deployedLinkReferences": {}
}