{
  "_format": "hh-sol-artifact-1",
  "contractName": "EggNFT",
  "sourceName": "contracts/EggNFT.sol",
  "abi": [
    {
      "inputs": [
        {
          "internalType": "string",
          "name": "_baseURI",
          "type": "string"
        }
      ],
      "stateMutability": "nonpayable",
      "type": "constructor"
    },
    {
      "anonymous": false,
      "inputs": [
        {
          "indexed": true,
          "internalType": "address",
          "name": "account",
          "type": "address"
        },
        {
          "indexed": true,
          "internalType": "address",
          "name": "operator",
          "type": "address"
        },
        {
          "indexed": false,
          "internalType": "bool",
          "name": "approved",
          "type": "bool"
        }
      ],
      "name": "ApprovalForAll",
      "type": "event"
    },
    {
      "anonymous": false,
      "inputs": [
        {
          "indexed": true,
          "internalType": "address",
          "name": "from",
          "type": "address"
        },
        {
          "indexed": false,
          "internalType": "uint256",
          "name": "eggType",
          "type": "uint256"
        },
        {
          "indexed": false,
          "internalType": "uint256",
          "name": "amount",
          "type": "uint256"
        }
      ],
      "name": "EggBurned",
      "type": "event"
    },
    {
      "anonymous": false,
      "inputs": [
        {
          "indexed": true,
          "internalType": "address",
          "name": "to",
          "type": "address"
        },
        {
          "indexed": false,
          "internalType": "uint256",
          "name": "eggType",
          "type": "uint256"
        },
        {
          "indexed": false,
          "internalType": "uint256",
          "name": "amount",
          "type": "uint256"
        }
      ],
      "name": "EggMinted",
      "type": "event"
    },
    {
      "anonymous": false,
      "inputs": [
        {
          "indexed": true,
          "internalType": "address",
          "name": "previousOwner",
          "type": "address"
        },
        {
          "indexed": true,
          "internalType": "address",
          "name": "newOwner",
          "type": "address"
        }
      ],
      "name": "OwnershipTransferred",
      "type": "event"
    },
    {
      "anonymous": false,
      "inputs": [
        {
          "indexed": true,
          "internalType": "address",
          "name": "operator",
          "type": "address"
        },
        {
          "indexed": true,
          "internalType": "address",
          "name": "from",
          "type": "address"
        },
        {
          "indexed": true,
          "internalType": "address",
          "name": "to",
          "type": "address"
        },
        {
          "indexed": false,
          "internalType": "uint256[]",
          "name": "ids",
          "type": "uint256[]"
        },
        {
          "indexed": false,
          "internalType": "uint256[]",
          "name": "values",
          "type": "uint256[]"
        }
      ],
      "name": "TransferBatch",
      "type": "event"
    },
    {
      "anonymous": false,
      "inputs": [
        {
          "indexed": true,
          "internalType": "address",
          "name": "operator",
          "type": "address"
        },
        {
          "indexed": true,
          "internalType": "address",
          "name": "from",
          "type": "address"
        },
        {
          "indexed": true,
          "internalType": "address",
          "name": "to",
          "type": "address"
        },
        {
          "indexed": false,
          "internalType": "uint256",
          "name": "id",
          "type": "uint256"
        },
        {
          "indexed": false,
          "internalType": "uint256",
          "name": "value",
          "type": "uint256"
        }
      ],
      "name": "TransferSingle",
      "type": "event"
    },
    {
      "anonymous": false,
      "inputs": [
        {
          "indexed": false,
          "internalType": "string",
          "name": "value",
          "type": "string"
        },
        {
          "indexed": true,
          "internalType": "uint256",
          "name": "id",
          "type": "uint256"
        }
      ],
      "name": "URI",
      "type": "event"
    },
    {
      "inputs": [],
      "name": "ATTRIBUTE_EGG",
      "outputs": [
        {
          "internalType": "uint256",
          "name": "",
          "type": "uint256"
        }
      ],
      "stateMutability": "view",
      "type": "function"
    },
    {
      "inputs": [],
      "name": "BASIC_EGG",
      "outputs": [
        {
          "internalType": "uint256",
          "name": "",
          "type": "uint256"
        }
      ],
      "stateMutability": "view",
      "type": "function"
    },
    {
      "inputs": [],
      "name": "COSMETIC_EGG",
      "outputs": [
        {
          "internalType": "uint256",
          "name": "",
          "type": "uint256"
        }
      ],
      "stateMutability": "view",
      "type": "function"
    },
    {
      "inputs": [
        {
          "internalType": "address",
          "name": "account",
          "type": "address"
        },
        {
          "internalType": "uint256",
          "name": "id",
          "type": "uint256"
        }
      ],
      "name": "balanceOf",
      "outputs": [
        {
          "internalType": "uint256",
          "name": "",
          "type": "uint256"
        }
      ],
      "stateMutability": "view",
      "type": "function"
    },
    {
      "inputs": [
        {
          "internalType": "address[]",
          "name": "accounts",
          "type": "address[]"
        },
        {
          "internalType": "uint256[]",
          "name": "ids",
          "type": "uint256[]"
        }
      ],
      "name": "balanceOfBatch",
      "outputs": [
        {
          "internalType": "uint256[]",
          "name": "",
          "type": "uint256[]"
        }
      ],
      "stateMutability": "view",
      "type": "function"
    },
    {
      "inputs": [],
      "name": "baseURI",
      "outputs": [
        {
          "internalType": "string",
          "name": "",
          "type": "string"
        }
      ],
      "stateMutability": "view",
      "type": "function"
    },
    {
      "inputs": [
        {
          "internalType": "address",
          "name": "from",
          "type": "address"
        },
        {
          "internalType": "uint256",
          "name": "eggType",
          "type": "uint256"
        },
        {
          "internalType": "uint256",
          "name": "amount",
          "type": "uint256"
        }
      ],
      "name": "burn",
      "outputs": [],
      "stateMutability": "nonpayable",
      "type": "function"
    },
    {
      "inputs": [
        {
          "internalType": "uint256",
          "name": "eggType",
          "type": "uint256"
        }
      ],
      "name": "getEggTypeName",
      "outputs": [
        {
          "internalType": "string",
          "name": "",
          "type": "string"
        }
      ],
      "stateMutability": "pure",
      "type": "function"
    },
    {
      "inputs": [
        {
          "internalType": "address",
          "name": "account",
          "type": "address"
        },
        {
          "internalType": "address",
          "name": "operator",
          "type": "address"
        }
      ],
      "name": "isApprovedForAll",
      "outputs": [
        {
          "internalType": "bool",
          "name": "",
          "type": "bool"
        }
      ],
      "stateMutability": "view",
      "type": "function"
    },
    {
      "inputs": [
        {
          "internalType": "address",
          "name": "to",
          "type": "address"
        },
        {
          "internalType": "uint256",
          "name": "eggType",
          "type": "uint256"
        },
        {
          "internalType": "uint256",
          "name": "amount",
          "type": "uint256"
        }
      ],
      "name": "mint",
      "outputs": [],
      "stateMutability": "nonpayable",
      "type": "function"
    },
    {
      "inputs": [
        {
          "internalType": "address",
          "name": "to",
          "type": "address"
        },
        {
          "internalType": "uint256[]",
          "name": "eggTypes",
          "type": "uint256[]"
        },
        {
          "internalType": "uint256[]",
          "name": "amounts",
          "type": "uint256[]"
        }
      ],
      "name": "mintBatch",
      "outputs": [],
      "stateMutability": "nonpayable",
      "type": "function"
    },
    {
      "inputs": [],
      "name": "owner",
      "outputs": [
        {
          "internalType": "address",
          "name": "",
          "type": "address"
        }
      ],
      "stateMutability": "view",
      "type": "function"
    },
    {
      "inputs": [],
      "name": "renounceOwnership",
      "outputs": [],
      "stateMutability": "nonpayable",
      "type": "function"
    },
    {
      "inputs": [
        {
          "internalType": "address",
          "name": "from",
          "type": "address"
        },
        {
          "internalType": "address",
          "name": "to",
          "type": "address"
        },
        {
          "internalType": "uint256[]",
          "name": "ids",
          "type": "uint256[]"
        },
        {
          "internalType": "uint256[]",
          "name": "amounts",
          "type": "uint256[]"
        },
        {
          "internalType": "bytes",
          "name": "data",
          "type": "bytes"
        }
      ],
      "name": "safeBatchTransferFrom",
      "outputs": [],
      "stateMutability": "nonpayable",
      "type": "function"
    },
    {
      "inputs": [
        {
          "internalType": "address",
          "name": "from",
          "type": "address"
        },
        {
          "internalType": "address",
          "name": "to",
          "type": "address"
        },
        {
          "internalType": "uint256",
          "name": "id",
          "type": "uint256"
        },
        {
          "internalType": "uint256",
          "name": "amount",
          "type": "uint256"
        },
        {
          "internalType": "bytes",
          "name": "data",
          "type": "bytes"
        }
      ],
      "name": "safeTransferFrom",
      "outputs": [],
      "stateMutability": "nonpayable",
      "type": "function"
    },
    {
      "inputs": [
        {
          "internalType": "address",
          "name": "operator",
          "type": "address"
        },
        {
          "internalType": "bool",
          "name": "approved",
          "type": "bool"
        }
      ],
      "name": "setApprovalForAll",
      "outputs": [],
      "stateMutability": "nonpayable",
      "type": "function"
    },
    {
      "inputs": [
        {
          "internalType": "string",
          "name": "_baseURI",
          "type": "string"
        }
      ],
      "name": "setBaseURI",
      "outputs": [],
      "stateMutability": "nonpayable",
      "type": "function"
    },
    {
      "inputs": [
        {
          "internalType": "uint256",
          "name": "tokenId",
          "type": "uint256"
        },
        {
          "internalType": "string",
          "name": "tokenURI",
          "type": "string"
        }
      ],
      "name": "setTokenURI",
      "outputs": [],
      "stateMutability": "nonpayable",
      "type": "function"
    },
    {
      "inputs": [
        {
          "internalType": "bytes4",
          "name": "interfaceId",
          "type": "bytes4"
        }
      ],
      "name": "supportsInterface",
      "outputs": [
        {
          "internalType": "bool",
          "name": "",
          "type": "bool"
        }
      ],
      "stateMutability": "view",
      "type": "function"
    },
    {
      "inputs": [
        {
          "internalType": "address",
          "name": "newOwner",
          "type": "address"
        }
      ],
      "name": "transferOwnership",
      "outputs": [],
      "stateMutability": "nonpayable",
      "type": "function"
    },
    {
      "inputs": [
        {
          "internalType": "uint256",
          "name": "tokenId",
          "type": "uint256"
        }
      ],
      "name": "uri",
      "outputs": [
        {
          "internalType": "string",
          "name": "",
          "type": "string"
        }
      ],
      "stateMutability": "view",
      "type": "function"
    }
  ],
  "bytecode": "0x60806040523480156200001157600080fd5b5060405162002555380380620025558339810160408190526200003491620000dc565b80620000408162000062565b506200004c3362000074565b60046200005a828262000240565b50506200030c565b600262000070828262000240565b5050565b600380546001600160a01b038381166001600160a01b0319831681179093556040519116919082907f8be0079c531659141344cd1fd0a4f28419497f9722a3daafe3b4186f6b6457e090600090a35050565b634e487b7160e01b600052604160045260246000fd5b60006020808385031215620000f057600080fd5b82516001600160401b03808211156200010857600080fd5b818501915085601f8301126200011d57600080fd5b815181811115620001325762000132620000c6565b604051601f8201601f19908116603f011681019083821181831017156200015d576200015d620000c6565b8160405282815288868487010111156200017657600080fd5b600093505b828410156200019a57848401860151818501870152928501926200017b565b600086848301015280965050505050505092915050565b600181811c90821680620001c657607f821691505b602082108103620001e757634e487b7160e01b600052602260045260246000fd5b50919050565b601f8211156200023b57600081815260208120601f850160051c81016020861015620002165750805b601f850160051c820191505b81811015620002375782815560010162000222565b5050505b505050565b81516001600160401b038111156200025c576200025c620000c6565b62000274816200026d8454620001b1565b84620001ed565b602080601f831160018114620002ac5760008415620002935750858301515b600019600386901b1c1916600185901b17855562000237565b600085815260208120601f198616915b82811015620002dd57888601518255948401946001909101908401620002bc565b5085821015620002fc5787850151600019600388901b60f8161c191681555b5050505050600190811b01905550565b612239806200031c6000396000f3fe608060405234801561001057600080fd5b50600436106101365760003560e01c8063715018a6116100b8578063d81d0a151161007c578063d81d0a1514610273578063e985e9c514610286578063f242432a146102c2578063f2fde38b146102d5578063f5298aca146102e8578063f75f5884146102fb57600080fd5b8063715018a61461022d5780638da5cb5b14610235578063a22cb46514610250578063a4a48af714610263578063b973800c1461026b57600080fd5b8063162094c4116100ff578063162094c4146101cc5780632eb2c2d6146101df5780634e1273f4146101f257806355f804b3146102125780636c0360eb1461022557600080fd5b8062fdd58e1461013b57806301ffc9a7146101615780630e89341c14610184578063140ca0e1146101a4578063156e29f6146101b7575b600080fd5b61014e6101493660046116ae565b610303565b6040519081526020015b60405180910390f35b61017461016f3660046116ee565b61039c565b6040519015158152602001610158565b610197610192366004611712565b6103ec565b604051610158919061177b565b6101976101b2366004611712565b6104cd565b6101ca6101c536600461178e565b610580565b005b6101ca6101da366004611876565b61063e565b6101ca6101ed366004611950565b610663565b6102056102003660046119f9565b6106af565b6040516101589190611af4565b6101ca610220366004611b07565b6107d8565b6101976107f0565b6101ca61087e565b6003546040516001600160a01b039091168152602001610158565b6101ca61025e366004611b43565b610892565b61014e600181565b61014e600381565b6101ca610281366004611b7f565b61089d565b610174610294366004611bf2565b6001600160a01b03918216600090815260016020908152604080832093909416825291909152205460ff1690565b6101ca6102d0366004611c25565b610962565b6101ca6102e3366004611c89565b6109a7565b6101ca6102f636600461178e565b610a20565b61014e600281565b60006001600160a01b0383166103735760405162461bcd60e51b815260206004820152602a60248201527f455243313135353a2061646472657373207a65726f206973206e6f742061207660448201526930b634b21037bbb732b960b11b60648201526084015b60405180910390fd5b506000818152602081815260408083206001600160a01b03861684529091529020545b92915050565b60006001600160e01b03198216636cdb3d1360e11b14806103cd57506001600160e01b031982166303a24d0760e21b145b8061039657506301ffc9a760e01b6001600160e01b0319831614610396565b60008181526005602052604081208054606092919061040a90611ca4565b80601f016020809104026020016040519081016040528092919081815260200182805461043690611ca4565b80156104835780601f1061045857610100808354040283529160200191610483565b820191906000526020600020905b81548152906001019060200180831161046657829003601f168201915b5050505050905060008151111561049a5792915050565b60046104a584610ad4565b6040516020016104b6929190611cde565b604051602081830303815290604052915050919050565b6060600182036104fc57505060408051808201909152600981526842617369632045676760b81b602082015290565b6002820361052c57505060408051808201909152600c81526b436f736d657469632045676760a01b602082015290565b6003820361055d57505060408051808201909152600d81526c4174747269627574652045676760981b602082015290565b50506040805180820190915260078152662ab735b737bbb760c91b602082015290565b610588610b66565b6001821015801561059a575060038211155b6105d95760405162461bcd60e51b815260206004820152601060248201526f496e76616c696420656767207479706560801b604482015260640161036a565b6105f483838360405180602001604052806000815250610bc0565b60408051838152602081018390526001600160a01b038516917f04bcd7b4a39833d5418af4e6b06f72d559d54a27767aacca200e0632d0526f3c91015b60405180910390a2505050565b610646610b66565b600082815260056020526040902061065e8282611dab565b505050565b6001600160a01b03851633148061067f575061067f8533610294565b61069b5760405162461bcd60e51b815260040161036a90611e6a565b6106a88585858585610c9a565b5050505050565b606081518351146107145760405162461bcd60e51b815260206004820152602960248201527f455243313135353a206163636f756e747320616e6420696473206c656e677468604482015268040dad2e6dac2e8c6d60bb1b606482015260840161036a565b600083516001600160401b0381111561072f5761072f6117c1565b604051908082528060200260200182016040528015610758578160200160208202803683370190505b50905060005b84518110156107d0576107a385828151811061077c5761077c611eb8565b602002602001015185838151811061079657610796611eb8565b6020026020010151610303565b8282815181106107b5576107b5611eb8565b60209081029190910101526107c981611ee4565b905061075e565b509392505050565b6107e0610b66565b60046107ec8282611dab565b5050565b600480546107fd90611ca4565b80601f016020809104026020016040519081016040528092919081815260200182805461082990611ca4565b80156108765780601f1061084b57610100808354040283529160200191610876565b820191906000526020600020905b81548152906001019060200180831161085957829003601f168201915b505050505081565b610886610b66565b6108906000610e36565b565b6107ec338383610e88565b6108a5610b66565b6108c083838360405180602001604052806000815250610f68565b60005b825181101561095c57836001600160a01b03167f04bcd7b4a39833d5418af4e6b06f72d559d54a27767aacca200e0632d0526f3c84838151811061090957610909611eb8565b602002602001015184848151811061092357610923611eb8565b6020026020010151604051610942929190918252602082015260400190565b60405180910390a28061095481611ee4565b9150506108c3565b50505050565b6001600160a01b03851633148061097e575061097e8533610294565b61099a5760405162461bcd60e51b815260040161036a90611e6a565b6106a885858585856110b3565b6109af610b66565b6001600160a01b038116610a145760405162461bcd60e51b815260206004820152602660248201527f4f776e61626c653a206e6577206f776e657220697320746865207a65726f206160448201526564647265737360d01b606482015260840161036a565b610a1d81610e36565b50565b6001600160a01b038316331480610a3c5750610a3c8333610294565b610a885760405162461bcd60e51b815260206004820181905260248201527f43616c6c6572206973206e6f74206f776e6572206e6f7220617070726f766564604482015260640161036a565b610a938383836111dd565b60408051838152602081018390526001600160a01b038516917fff75ca888546720d72394a257c9d734cad0b4dc0658a29e72cd46cd6bf863f609101610631565b60606000610ae183611359565b60010190506000816001600160401b03811115610b0057610b006117c1565b6040519080825280601f01601f191660200182016040528015610b2a576020820181803683370190505b5090508181016020015b600019016f181899199a1a9b1b9c1cb0b131b232b360811b600a86061a8153600a8504945084610b3457509392505050565b6003546001600160a01b031633146108905760405162461bcd60e51b815260206004820181905260248201527f4f776e61626c653a2063616c6c6572206973206e6f7420746865206f776e6572604482015260640161036a565b6001600160a01b038416610be65760405162461bcd60e51b815260040161036a90611efd565b336000610bf285611431565b90506000610bff85611431565b90506000868152602081815260408083206001600160a01b038b16845290915281208054879290610c31908490611f3e565b909155505060408051878152602081018790526001600160a01b03808a1692600092918716917fc3d58168c5ae7397731d063d5bbf3d657854427343f4c083240f7aacaa2d0f62910160405180910390a4610c918360008989898961147c565b50505050505050565b8151835114610cbb5760405162461bcd60e51b815260040161036a90611f51565b6001600160a01b038416610ce15760405162461bcd60e51b815260040161036a90611f99565b3360005b8451811015610dc8576000858281518110610d0257610d02611eb8565b602002602001015190506000858381518110610d2057610d20611eb8565b602090810291909101810151600084815280835260408082206001600160a01b038e168352909352919091205490915081811015610d705760405162461bcd60e51b815260040161036a90611fde565b6000838152602081815260408083206001600160a01b038e8116855292528083208585039055908b16825281208054849290610dad908490611f3e565b9250508190555050505080610dc190611ee4565b9050610ce5565b50846001600160a01b0316866001600160a01b0316826001600160a01b03167f4a39dc06d4c0dbc64b70af90fd698a233a518aa5d07e595d983b8c0526c8f7fb8787604051610e18929190612028565b60405180910390a4610e2e8187878787876115d7565b505050505050565b600380546001600160a01b038381166001600160a01b0319831681179093556040519116919082907f8be0079c531659141344cd1fd0a4f28419497f9722a3daafe3b4186f6b6457e090600090a35050565b816001600160a01b0316836001600160a01b031603610efb5760405162461bcd60e51b815260206004820152602960248201527f455243313135353a2073657474696e6720617070726f76616c20737461747573604482015268103337b91039b2b63360b91b606482015260840161036a565b6001600160a01b03838116600081815260016020908152604080832094871680845294825291829020805460ff191686151590811790915591519182527f17307eab39ab6107e8899845ad3d59bd9653f200f220920489ca2b5937696c31910160405180910390a3505050565b6001600160a01b038416610f8e5760405162461bcd60e51b815260040161036a90611efd565b8151835114610faf5760405162461bcd60e51b815260040161036a90611f51565b3360005b845181101561104b57838181518110610fce57610fce611eb8565b6020026020010151600080878481518110610feb57610feb611eb8565b602002602001015181526020019081526020016000206000886001600160a01b03166001600160a01b0316815260200190815260200160002060008282546110339190611f3e565b9091555081905061104381611ee4565b915050610fb3565b50846001600160a01b031660006001600160a01b0316826001600160a01b03167f4a39dc06d4c0dbc64b70af90fd698a233a518aa5d07e595d983b8c0526c8f7fb878760405161109c929190612028565b60405180910390a46106a8816000878787876115d7565b6001600160a01b0384166110d95760405162461bcd60e51b815260040161036a90611f99565b3360006110e585611431565b905060006110f285611431565b90506000868152602081815260408083206001600160a01b038c168452909152902054858110156111355760405162461bcd60e51b815260040161036a90611fde565b6000878152602081815260408083206001600160a01b038d8116855292528083208985039055908a16825281208054889290611172908490611f3e565b909155505060408051888152602081018890526001600160a01b03808b16928c821692918816917fc3d58168c5ae7397731d063d5bbf3d657854427343f4c083240f7aacaa2d0f62910160405180910390a46111d2848a8a8a8a8a61147c565b505050505050505050565b6001600160a01b03831661123f5760405162461bcd60e51b815260206004820152602360248201527f455243313135353a206275726e2066726f6d20746865207a65726f206164647260448201526265737360e81b606482015260840161036a565b33600061124b84611431565b9050600061125884611431565b60408051602080820183526000918290528882528181528282206001600160a01b038b16835290522054909150848110156112e15760405162461bcd60e51b8152602060048201526024808201527f455243313135353a206275726e20616d6f756e7420657863656564732062616c604482015263616e636560e01b606482015260840161036a565b6000868152602081815260408083206001600160a01b038b81168086529184528285208a8703905582518b81529384018a90529092908816917fc3d58168c5ae7397731d063d5bbf3d657854427343f4c083240f7aacaa2d0f62910160405180910390a4604080516020810190915260009052610c91565b60008072184f03e93ff9f4daa797ed6e38ed64bf6a1f0160401b83106113985772184f03e93ff9f4daa797ed6e38ed64bf6a1f0160401b830492506040015b6d04ee2d6d415b85acef810000000083106113c4576d04ee2d6d415b85acef8100000000830492506020015b662386f26fc1000083106113e257662386f26fc10000830492506010015b6305f5e10083106113fa576305f5e100830492506008015b612710831061140e57612710830492506004015b60648310611420576064830492506002015b600a83106103965760010192915050565b6040805160018082528183019092526060916000919060208083019080368337019050509050828160008151811061146b5761146b611eb8565b602090810291909101015292915050565b6001600160a01b0384163b15610e2e5760405163f23a6e6160e01b81526001600160a01b0385169063f23a6e61906114c09089908990889088908890600401612056565b6020604051808303816000875af19250505080156114fb575060408051601f3d908101601f191682019092526114f89181019061209b565b60015b6115a7576115076120b8565b806308c379a003611540575061151b6120d4565b806115265750611542565b8060405162461bcd60e51b815260040161036a919061177b565b505b60405162461bcd60e51b815260206004820152603460248201527f455243313135353a207472616e7366657220746f206e6f6e2d455243313135356044820152732932b1b2b4bb32b91034b6b83632b6b2b73a32b960611b606482015260840161036a565b6001600160e01b0319811663f23a6e6160e01b14610c915760405162461bcd60e51b815260040161036a9061215d565b6001600160a01b0384163b15610e2e5760405163bc197c8160e01b81526001600160a01b0385169063bc197c819061161b90899089908890889088906004016121a5565b6020604051808303816000875af1925050508015611656575060408051601f3d908101601f191682019092526116539181019061209b565b60015b611662576115076120b8565b6001600160e01b0319811663bc197c8160e01b14610c915760405162461bcd60e51b815260040161036a9061215d565b80356001600160a01b03811681146116a957600080fd5b919050565b600080604083850312156116c157600080fd5b6116ca83611692565b946020939093013593505050565b6001600160e01b031981168114610a1d57600080fd5b60006020828403121561170057600080fd5b813561170b816116d8565b9392505050565b60006020828403121561172457600080fd5b5035919050565b60005b8381101561174657818101518382015260200161172e565b50506000910152565b6000815180845261176781602086016020860161172b565b601f01601f19169290920160200192915050565b60208152600061170b602083018461174f565b6000806000606084860312156117a357600080fd5b6117ac84611692565b95602085013595506040909401359392505050565b634e487b7160e01b600052604160045260246000fd5b601f8201601f191681016001600160401b03811182821017156117fc576117fc6117c1565b6040525050565b600082601f83011261181457600080fd5b81356001600160401b0381111561182d5761182d6117c1565b604051611844601f8301601f1916602001826117d7565b81815284602083860101111561185957600080fd5b816020850160208301376000918101602001919091529392505050565b6000806040838503121561188957600080fd5b8235915060208301356001600160401b038111156118a657600080fd5b6118b285828601611803565b9150509250929050565b60006001600160401b038211156118d5576118d56117c1565b5060051b60200190565b600082601f8301126118f057600080fd5b813560206118fd826118bc565b60405161190a82826117d7565b83815260059390931b850182019282810191508684111561192a57600080fd5b8286015b84811015611945578035835291830191830161192e565b509695505050505050565b600080600080600060a0868803121561196857600080fd5b61197186611692565b945061197f60208701611692565b935060408601356001600160401b038082111561199b57600080fd5b6119a789838a016118df565b945060608801359150808211156119bd57600080fd5b6119c989838a016118df565b935060808801359150808211156119df57600080fd5b506119ec88828901611803565b9150509295509295909350565b60008060408385031215611a0c57600080fd5b82356001600160401b0380821115611a2357600080fd5b818501915085601f830112611a3757600080fd5b81356020611a44826118bc565b604051611a5182826117d7565b83815260059390931b8501820192828101915089841115611a7157600080fd5b948201945b83861015611a9657611a8786611692565b82529482019490820190611a76565b96505086013592505080821115611aac57600080fd5b506118b2858286016118df565b600081518084526020808501945080840160005b83811015611ae957815187529582019590820190600101611acd565b509495945050505050565b60208152600061170b6020830184611ab9565b600060208284031215611b1957600080fd5b81356001600160401b03811115611b2f57600080fd5b611b3b84828501611803565b949350505050565b60008060408385031215611b5657600080fd5b611b5f83611692565b915060208301358015158114611b7457600080fd5b809150509250929050565b600080600060608486031215611b9457600080fd5b611b9d84611692565b925060208401356001600160401b0380821115611bb957600080fd5b611bc5878388016118df565b93506040860135915080821115611bdb57600080fd5b50611be8868287016118df565b9150509250925092565b60008060408385031215611c0557600080fd5b611c0e83611692565b9150611c1c60208401611692565b90509250929050565b600080600080600060a08688031215611c3d57600080fd5b611c4686611692565b9450611c5460208701611692565b9350604086013592506060860135915060808601356001600160401b03811115611c7d57600080fd5b6119ec88828901611803565b600060208284031215611c9b57600080fd5b61170b82611692565b600181811c90821680611cb857607f821691505b602082108103611cd857634e487b7160e01b600052602260045260246000fd5b50919050565b6000808454611cec81611ca4565b60018281168015611d045760018114611d1957611d48565b60ff1984168752821515830287019450611d48565b8860005260208060002060005b85811015611d3f5781548a820152908401908201611d26565b50505082870194505b505050508351611d5c81836020880161172b565b01949350505050565b601f82111561065e57600081815260208120601f850160051c81016020861015611d8c5750805b601f850160051c820191505b81811015610e2e57828155600101611d98565b81516001600160401b03811115611dc457611dc46117c1565b611dd881611dd28454611ca4565b84611d65565b602080601f831160018114611e0d5760008415611df55750858301515b600019600386901b1c1916600185901b178555610e2e565b600085815260208120601f198616915b82811015611e3c57888601518255948401946001909101908401611e1d565b5085821015611e5a5787850151600019600388901b60f8161c191681555b5050505050600190811b01905550565b6020808252602e908201527f455243313135353a2063616c6c6572206973206e6f7420746f6b656e206f776e60408201526d195c881bdc88185c1c1c9bdd995960921b606082015260800190565b634e487b7160e01b600052603260045260246000fd5b634e487b7160e01b600052601160045260246000fd5b600060018201611ef657611ef6611ece565b5060010190565b60208082526021908201527f455243313135353a206d696e7420746f20746865207a65726f206164647265736040820152607360f81b606082015260800190565b8082018082111561039657610396611ece565b60208082526028908201527f455243313135353a2069647320616e6420616d6f756e7473206c656e677468206040820152670dad2e6dac2e8c6d60c31b606082015260800190565b60208082526025908201527f455243313135353a207472616e7366657220746f20746865207a65726f206164604082015264647265737360d81b606082015260800190565b6020808252602a908201527f455243313135353a20696e73756666696369656e742062616c616e636520666f60408201526939103a3930b739b332b960b11b606082015260800190565b60408152600061203b6040830185611ab9565b828103602084015261204d8185611ab9565b95945050505050565b6001600160a01b03868116825285166020820152604081018490526060810183905260a0608082018190526000906120909083018461174f565b979650505050505050565b6000602082840312156120ad57600080fd5b815161170b816116d8565b600060033d11156120d15760046000803e5060005160e01c5b90565b600060443d10156120e25790565b6040516003193d81016004833e81513d6001600160401b03816024840111818411171561211157505050505090565b82850191508151818111156121295750505050505090565b843d87010160208285010111156121435750505050505090565b612152602082860101876117d7565b509095945050505050565b60208082526028908201527f455243313135353a204552433131353552656365697665722072656a656374656040820152676420746f6b656e7360c01b606082015260800190565b6001600160a01b0386811682528516602082015260a0604082018190526000906121d190830186611ab9565b82810360608401526121e38186611ab9565b905082810360808401526121f7818561174f565b9897505050505050505056fea26469706673582212200229f4abba66e5289a4323f20f982fbe0878e0c3d01b028519f035b1a421dab764736f6c63430008130033",
  "linkReferences": {},
  "deployedLinkReferences": {}
}