{
  "_format": "hh-sol-artifact-1",
  "contractName": "Marketplace",
  "sourceName": "contracts/Marketplace.sol",
  "abi": [
    {
      "inputs": [
        {
          "internalType": "address",
          "name": "_platformWallet",
          "type": "address"
        }
      ],
      "stateMutability": "nonpayable",
      "type": "constructor"
    },
    {
      "anonymous": false,
      "inputs": [
        {
          "indexed": true,
          "internalType": "uint256",
          "name": "listingId",
          "type": "uint256"
        },
        {
          "indexed": true,
          "internalType": "address",
          "name": "seller",
          "type": "address"
        },
        {
          "indexed": true,
          "internalType": "address",
          "name": "nftContract",
          "type": "address"
        },
        {
          "indexed": false,
          "internalType": "enum Marketplace.ItemType",
          "name": "itemType",
          "type": "uint8"
        },
        {
          "indexed": false,
          "internalType": "uint256",
          "name": "tokenId",
          "type": "uint256"
        },
        {
          "indexed": false,
          "internalType": "uint256",
          "name": "amount",
          "type": "uint256"
        },
        {
          "indexed": false,
          "internalType": "uint256",
          "name": "price",
          "type": "uint256"
        }
      ],
      "name": "ItemListed",
      "type": "event"
    },
    {
      "anonymous": false,
      "inputs": [
        {
          "indexed": true,
          "internalType": "uint256",
          "name": "listingId",
          "type": "uint256"
        },
        {
          "indexed": true,
          "internalType": "address",
          "name": "seller",
          "type": "address"
        },
        {
          "indexed": true,
          "internalType": "address",
          "name": "buyer",
          "type": "address"
        },
        {
          "indexed": false,
          "internalType": "address",
          "name": "nftContract",
          "type": "address"
        },
        {
          "indexed": false,
          "internalType": "enum Marketplace.ItemType",
          "name": "itemType",
          "type": "uint8"
        },
        {
          "indexed": false,
          "internalType": "uint256",
          "name": "tokenId",
          "type": "uint256"
        },
        {
          "indexed": false,
          "internalType": "uint256",
          "name": "amount",
          "type": "uint256"
        },
        {
          "indexed": false,
          "internalType": "uint256",
          "name": "price",
          "type": "uint256"
        }
      ],
      "name": "ItemSold",
      "type": "event"
    },
    {
      "anonymous": false,
      "inputs": [
        {
          "indexed": true,
          "internalType": "uint256",
          "name": "listingId",
          "type": "uint256"
        },
        {
          "indexed": true,
          "internalType": "address",
          "name": "seller",
          "type": "address"
        },
        {
          "indexed": false,
          "internalType": "address",
          "name": "nftContract",
          "type": "address"
        },
        {
          "indexed": false,
          "internalType": "uint256",
          "name": "tokenId",
          "type": "uint256"
        }
      ],
      "name": "ListingCancelled",
      "type": "event"
    },
    {
      "inputs": [
        {
          "internalType": "uint256",
          "name": "listingId",
          "type": "uint256"
        }
      ],
      "name": "buyItem",
      "outputs": [],
      "stateMutability": "payable",
      "type": "function"
    },
    {
      "inputs": [
        {
          "internalType": "uint256",
          "name": "listingId",
          "type": "uint256"
        }
      ],
      "name": "cancelListing",
      "outputs": [],
      "stateMutability": "nonpayable",
      "type": "function"
    },
    {
      "inputs": [],
      "name": "getActiveListings",
      "outputs": [
        {
          "components": [
            {
              "internalType": "address",
              "name": "seller",
              "type": "address"
            },
            {
              "internalType": "address",
              "name": "nftContract",
              "type": "address"
            },
            {
              "internalType": "enum Marketplace.ItemType",
              "name": "itemType",
              "type": "uint8"
            },
            {
              "internalType": "uint256",
              "name": "tokenId",
              "type": "uint256"
            },
            {
              "internalType": "uint256",
              "name": "amount",
              "type": "uint256"
            },
            {
              "internalType": "uint256",
              "name": "price",
              "type": "uint256"
            },
            {
              "internalType": "bool",
              "name": "active",
              "type": "bool"
            }
          ],
          "internalType": "struct Marketplace.Listing[]",
          "name": "",
          "type": "tuple[]"
        }
      ],
      "stateMutability": "view",
      "type": "function"
    },
    {
      "inputs": [
        {
          "internalType": "uint256",
          "name": "listingId",
          "type": "uint256"
        }
      ],
      "name": "getListing",
      "outputs": [
        {
          "components": [
            {
              "internalType": "address",
              "name": "seller",
              "type": "address"
            },
            {
              "internalType": "address",
              "name": "nftContract",
              "type": "address"
            },
            {
              "internalType": "enum Marketplace.ItemType",
              "name": "itemType",
              "type": "uint8"
            },
            {
              "internalType": "uint256",
              "name": "tokenId",
              "type": "uint256"
            },
            {
              "internalType": "uint256",
              "name": "amount",
              "type": "uint256"
            },
            {
              "internalType": "uint256",
              "name": "price",
              "type": "uint256"
            },
            {
              "internalType": "bool",
              "name": "active",
              "type": "bool"
            }
          ],
          "internalType": "struct Marketplace.Listing",
          "name": "",
          "type": "tuple"
        }
      ],
      "stateMutability": "view",
      "type": "function"
    },
    {
      "inputs": [
        {
          "internalType": "address",
          "name": "nftContract",
          "type": "address"
        },
        {
          "internalType": "uint256",
          "name": "tokenId",
          "type": "uint256"
        }
      ],
      "name": "getListingByToken",
      "outputs": [
        {
          "components": [
            {
              "internalType": "address",
              "name": "seller",
              "type": "address"
            },
            {
              "internalType": "address",
              "name": "nftContract",
              "type": "address"
            },
            {
              "internalType": "enum Marketplace.ItemType",
              "name": "itemType",
              "type": "uint8"
            },
            {
              "internalType": "uint256",
              "name": "tokenId",
              "type": "uint256"
            },
            {
              "internalType": "uint256",
              "name": "amount",
              "type": "uint256"
            },
            {
              "internalType": "uint256",
              "name": "price",
              "type": "uint256"
            },
            {
              "internalType": "bool",
              "name": "active",
              "type": "bool"
            }
          ],
          "internalType": "struct Marketplace.Listing",
          "name": "",
          "type": "tuple"
        }
      ],
      "stateMutability": "view",
      "type": "function"
    },
    {
      "inputs": [],
      "name": "getTotalListings",
      "outputs": [
        {
          "internalType": "uint256",
          "name": "",
          "type": "uint256"
        }
      ],
      "stateMutability": "view",
      "type": "function"
    },
    {
      "inputs": [
        {
          "internalType": "address",
          "name": "nftContract",
          "type": "address"
        },
        {
          "internalType": "enum Marketplace.ItemType",
          "name": "itemType",
          "type": "uint8"
        },
        {
          "internalType": "uint256",
          "name": "tokenId",
          "type": "uint256"
        },
        {
          "internalType": "uint256",
          "name": "amount",
          "type": "uint256"
        },
        {
          "internalType": "uint256",
          "name": "price",
          "type": "uint256"
        }
      ],
      "name": "listItem",
      "outputs": [],
      "stateMutability": "nonpayable",
      "type": "function"
    },
    {
      "inputs": [
        {
          "internalType": "address",
          "name": "",
          "type": "address"
        },
        {
          "internalType": "uint256",
          "name": "",
          "type": "uint256"
        }
      ],
      "name": "listingIds",
      "outputs": [
        {
          "internalType": "uint256",
          "name": "",
          "type": "uint256"
        }
      ],
      "stateMutability": "view",
      "type": "function"
    },
    {
      "inputs": [
        {
          "internalType": "uint256",
          "name": "",
          "type": "uint256"
        }
      ],
      "name": "listings",
      "outputs": [
        {
          "internalType": "address",
          "name": "seller",
          "type": "address"
        },
        {
          "internalType": "address",
          "name": "nftContract",
          "type": "address"
        },
        {
          "internalType": "enum Marketplace.ItemType",
          "name": "itemType",
          "type": "uint8"
        },
        {
          "internalType": "uint256",
          "name": "tokenId",
          "type": "uint256"
        },
        {
          "internalType": "uint256",
          "name": "amount",
          "type": "uint256"
        },
        {
          "internalType": "uint256",
          "name": "price",
          "type": "uint256"
        },
        {
          "internalType": "bool",
          "name": "active",
          "type": "bool"
        }
      ],
      "stateMutability": "view",
      "type": "function"
    },
    {
      "inputs": [
        {
          "internalType": "address",
          "name": "",
          "type": "address"
        },
        {
          "internalType": "address",
          "name": "",
          "type": "address"
        },
        {
          "internalType": "uint256[]",
          "name": "",
          "type": "uint256[]"
        },
        {
          "internalType": "uint256[]",
          "name": "",
          "type": "uint256[]"
        },
        {
          "internalType": "bytes",
          "name": "",
          "type": "bytes"
        }
      ],
      "name": "onERC1155BatchReceived",
      "outputs": [
        {
          "internalType": "bytes4",
          "name": "",
          "type": "bytes4"
        }
      ],
      "stateMutability": "pure",
      "type": "function"
    },
    {
      "inputs": [
        {
          "internalType": "address",
          "name": "",
          "type": "address"
        },
        {
          "internalType": "address",
          "name": "",
          "type": "address"
        },
        {
          "internalType": "uint256",
          "name": "",
          "type": "uint256"
        },
        {
          "internalType": "uint256",
          "name": "",
          "type": "uint256"
        },
        {
          "internalType": "bytes",
          "name": "",
          "type": "bytes"
        }
      ],
      "name": "onERC1155Received",
      "outputs": [
        {
          "internalType": "bytes4",
          "name": "",
          "type": "bytes4"
        }
      ],
      "stateMutability": "pure",
      "type": "function"
    },
    {
      "inputs": [],
      "name": "platformFee",
      "outputs": [
        {
          "internalType": "uint256",
          "name": "",
          "type": "uint256"
        }
      ],
      "stateMutability": "view",
      "type": "function"
    },
    {
      "inputs": [],
      "name": "platformWallet",
      "outputs": [
        {
          "internalType": "address",
          "name": "",
          "type": "address"
        }
      ],
      "stateMutability": "view",
      "type": "function"
    },
    {
      "inputs": [
        {
          "internalType": "uint256",
          "name": "_platformFee",
          "type": "uint256"
        }
      ],
      "name": "setPlatformFee",
      "outputs": [],
      "stateMutability": "nonpayable",
      "type": "function"
    },
    {
      "inputs": [
        {
          "internalType": "address",
          "name": "_platformWallet",
          "type": "address"
        }
      ],
      "name": "setPlatformWallet",
      "outputs": [],
      "stateMutability": "nonpayable",
      "type": "function"
    },
    {
      "inputs": [
        {
          "internalType": "bytes4",
          "name": "interfaceId",
          "type": "bytes4"
        }
      ],
      "name": "supportsInterface",
      "outputs": [
        {
          "internalType": "bool",
          "name": "",
          "type": "bool"
        }
      ],
      "stateMutability": "view",
      "type": "function"
    }
  ],
  "bytecode": "0x608060405260fa60045534801561001557600080fd5b5060405161178c38038061178c8339810160408190526100349161005e565b6001600055600580546001600160a01b0319166001600160a01b039290921691909117905561008e565b60006020828403121561007057600080fd5b81516001600160a01b038116811461008757600080fd5b9392505050565b6116ef8061009d6000396000f3fe6080604052600436106100f35760003560e01c80638831e9cf1161008a578063e7fb74c711610059578063e7fb74c71461033f578063f23a6e6114610352578063fa2af9da1461037f578063fbf30c35146103b757600080fd5b80638831e9cf146102225780639893054414610242578063bc197c811461027a578063de74e57b146102c257600080fd5b806326232a2e116100c657806326232a2e1461019c578063305a67a8146101c0578063592efd6a146101e057806387c35bc01461020057600080fd5b806301ffc9a7146100f8578063107a274a1461012d57806312e8e2c31461015a578063248d9aa31461017c575b600080fd5b34801561010457600080fd5b5061011861011336600461117f565b6103cc565b60405190151581526020015b60405180910390f35b34801561013957600080fd5b5061014d6101483660046111b0565b610403565b604051610124919061125c565b34801561016657600080fd5b5061017a6101753660046111b0565b6104ad565b005b34801561018857600080fd5b5061014d610197366004611286565b610508565b3480156101a857600080fd5b506101b260045481565b604051908152602001610124565b3480156101cc57600080fd5b5061017a6101db3660046111b0565b6105ca565b3480156101ec57600080fd5b5061017a6101fb3660046112b0565b610813565b34801561020c57600080fd5b50610215610b9c565b6040516101249190611303565b34801561022e57600080fd5b5061017a61023d366004611351565b610d55565b34801561024e57600080fd5b506101b261025d366004611286565b600360209081526000928352604080842090915290825290205481565b34801561028657600080fd5b506102a96102953660046113fa565b63bc197c8160e01b98975050505050505050565b6040516001600160e01b03199091168152602001610124565b3480156102ce57600080fd5b5061032c6102dd3660046111b0565b60026020819052600091825260409091208054600182015492820154600383015460048401546005909401546001600160a01b03938416959384169460ff600160a01b90950485169490911687565b60405161012497969594939291906114b5565b61017a61034d3660046111b0565b610dc8565b34801561035e57600080fd5b506102a961036d366004611500565b63f23a6e6160e01b9695505050505050565b34801561038b57600080fd5b5060055461039f906001600160a01b031681565b6040516001600160a01b039091168152602001610124565b3480156103c357600080fd5b506101b26110d7565b60006001600160e01b03198216630271189760e51b14806103fd57506301ffc9a760e01b6001600160e01b03198316145b92915050565b61040b611140565b600082815260026020908152604091829020825160e08101845281546001600160a01b03908116825260018301549081169382019390935292909190830190600160a01b900460ff166003811115610465576104656111c9565b6003811115610476576104766111c9565b815260028201546020820152600382015460408201526004820154606082015260059091015460ff16151560809091015292915050565b6005546001600160a01b031633146105035760405162461bcd60e51b815260206004820152601460248201527313db9b1e481c1b185d199bdc9b481dd85b1b195d60621b60448201526064015b60405180910390fd5b600455565b610510611140565b6001600160a01b0383811660009081526003602081815260408084208785528252808420548085526002835293819020815160e081018352815487168152600182015496871693810193909352939491939290840191600160a01b900460ff1690811115610580576105806111c9565b6003811115610591576105916111c9565b815260028201546020820152600382015460408201526004820154606082015260059091015460ff161515608090910152949350505050565b6105d26110e7565b600081815260026020526040902080546001600160a01b0316331461062a5760405162461bcd60e51b815260206004820152600e60248201526d2737ba103a34329039b2b63632b960911b60448201526064016104fa565b600581015460ff166106735760405162461bcd60e51b81526020600482015260126024820152714c697374696e67206e6f742061637469766560701b60448201526064016104fa565b60006001820154600160a01b900460ff166003811115610695576106956111c9565b0361071157600181015460028201546040516323b872dd60e01b815230600482015233602482015260448101919091526001600160a01b03909116906323b872dd90606401600060405180830381600087803b1580156106f457600080fd5b505af1158015610708573d6000803e3d6000fd5b50505050610784565b600181015460028201546003830154604051637921219560e11b81526001600160a01b039093169263f242432a9261075192309233929190600401611578565b600060405180830381600087803b15801561076b57600080fd5b505af115801561077f573d6000803e3d6000fd5b505050505b60058101805460ff191690556001810180546001600160a01b039081166000908152600360209081526040808320600287018054855290835281842093909355935491548451929093168252810191909152339184917f61b65dee2812bcf80c52c603ed6479cde390ec97008da9021789097ffe9b9de7910160405180910390a3506108106001600055565b50565b61081b6110e7565b6000811161086b5760405162461bcd60e51b815260206004820152601c60248201527f5072696365206d7573742062652067726561746572207468616e20300000000060448201526064016104fa565b600082116108bb5760405162461bcd60e51b815260206004820152601d60248201527f416d6f756e74206d7573742062652067726561746572207468616e203000000060448201526064016104fa565b6001600160a01b0385166000908152600360209081526040808320868452909152902054156109225760405162461bcd60e51b8152602060048201526013602482015272125d195b48185b1c9958591e481b1a5cdd1959606a1b60448201526064016104fa565b6000846003811115610936576109366111c9565b036109a6576040516323b872dd60e01b8152336004820152306024820152604481018490526001600160a01b038616906323b872dd90606401600060405180830381600087803b15801561098957600080fd5b505af115801561099d573d6000803e3d6000fd5b50505050610a0b565b604051637921219560e11b81526001600160a01b0386169063f242432a906109d8903390309088908890600401611578565b600060405180830381600087803b1580156109f257600080fd5b505af1158015610a06573d6000803e3d6000fd5b505050505b610a19600180546001019055565b6000610a2460015490565b6040805160e0810182523381526001600160a01b03891660208201529192508101866003811115610a5757610a576111c9565b8152602080820187905260408083018790526060830186905260016080909301839052600085815260028352819020845181546001600160a01b03199081166001600160a01b0392831617835593860151948201805494851695909116948517815591850151909390926001600160a81b03191617600160a01b836003811115610ae357610ae36111c9565b021790555060608201516002820155608082015160038083019190915560a0830151600483015560c0909201516005909101805460ff19169115159190911790556001600160a01b0387166000818152602092835260408082208883529093528290208390559051339083907f6b95389ba18085553c864797f5783779b4e830cd0046b824ad40957e48f7167190610b82908a908a908a908a906115b0565b60405180910390a450610b956001600055565b5050505050565b60606000610ba960015490565b9050600060015b828111610bf15760008181526002602052604090206005015460ff1615610bdf5781610bdb816115ef565b9250505b80610be9816115ef565b915050610bb0565b5060008167ffffffffffffffff811115610c0d57610c0d611608565b604051908082528060200260200182016040528015610c4657816020015b610c33611140565b815260200190600190039081610c2b5790505b509050600060015b848111610d4b5760008181526002602052604090206005015460ff1615610d3957600081815260026020908152604091829020825160e08101845281546001600160a01b03908116825260018301549081169382019390935292909190830190600160a01b900460ff166003811115610cc957610cc96111c9565b6003811115610cda57610cda6111c9565b815260028201546020820152600382015460408201526004820154606082015260059091015460ff1615156080909101528351849084908110610d1f57610d1f61161e565b60200260200101819052508180610d35906115ef565b9250505b80610d43816115ef565b915050610c4e565b5090949350505050565b6005546001600160a01b03163314610da65760405162461bcd60e51b815260206004820152601460248201527313db9b1e481c1b185d199bdc9b481dd85b1b195d60621b60448201526064016104fa565b600580546001600160a01b0319166001600160a01b0392909216919091179055565b610dd06110e7565b6000818152600260205260409020600581015460ff16610e265760405162461bcd60e51b81526020600482015260116024820152704974656d206e6f7420666f722073616c6560781b60448201526064016104fa565b80600401543414610e795760405162461bcd60e51b815260206004820152601860248201527f496e636f7272656374207061796d656e7420616d6f756e74000000000000000060448201526064016104fa565b600061271060045434610e8c9190611634565b610e96919061164b565b90506000610ea4823461166d565b905060006001840154600160a01b900460ff166003811115610ec857610ec86111c9565b03610f4457600183015460028401546040516323b872dd60e01b815230600482015233602482015260448101919091526001600160a01b03909116906323b872dd90606401600060405180830381600087803b158015610f2757600080fd5b505af1158015610f3b573d6000803e3d6000fd5b50505050610fb7565b600183015460028401546003850154604051637921219560e11b81526001600160a01b039093169263f242432a92610f8492309233929190600401611578565b600060405180830381600087803b158015610f9e57600080fd5b505af1158015610fb2573d6000803e3d6000fd5b505050505b82546040516001600160a01b039091169082156108fc029083906000818181858888f19350505050158015610ff0573d6000803e3d6000fd5b506005546040516001600160a01b039091169083156108fc029084906000818181858888f1935050505015801561102b573d6000803e3d6000fd5b5060058301805460ff191690556001830180546001600160a01b03908116600090815260036020818152604080842060028a0180548652925280842093909355875494549054918801546004890154935133968616958b957f4beb21ef6a51d5207df75fc81557c76b27779ff14507788a9001f36c4b3f308b956110c29592831694600160a01b90930460ff169390929190611680565b60405180910390a45050506108106001600055565b60006110e260015490565b905090565b6002600054036111395760405162461bcd60e51b815260206004820152601f60248201527f5265656e7472616e637947756172643a207265656e7472616e742063616c6c0060448201526064016104fa565b6002600055565b6040805160e081018252600080825260208201819052909182019081526020016000815260200160008152602001600081526020016000151581525090565b60006020828403121561119157600080fd5b81356001600160e01b0319811681146111a957600080fd5b9392505050565b6000602082840312156111c257600080fd5b5035919050565b634e487b7160e01b600052602160045260246000fd5b600481106111fd57634e487b7160e01b600052602160045260246000fd5b9052565b60018060a01b0380825116835280602083015116602084015250604081015161122d60408401826111df565b50606081015160608301526080810151608083015260a081015160a083015260c0810151151560c08301525050565b60e081016103fd8284611201565b80356001600160a01b038116811461128157600080fd5b919050565b6000806040838503121561129957600080fd5b6112a28361126a565b946020939093013593505050565b600080600080600060a086880312156112c857600080fd5b6112d18661126a565b94506020860135600481106112e557600080fd5b94979496505050506040830135926060810135926080909101359150565b6020808252825182820181905260009190848201906040850190845b8181101561134557611332838551611201565b9284019260e0929092019160010161131f565b50909695505050505050565b60006020828403121561136357600080fd5b6111a98261126a565b60008083601f84011261137e57600080fd5b50813567ffffffffffffffff81111561139657600080fd5b6020830191508360208260051b85010111156113b157600080fd5b9250929050565b60008083601f8401126113ca57600080fd5b50813567ffffffffffffffff8111156113e257600080fd5b6020830191508360208285010111156113b157600080fd5b60008060008060008060008060a0898b03121561141657600080fd5b61141f8961126a565b975061142d60208a0161126a565b9650604089013567ffffffffffffffff8082111561144a57600080fd5b6114568c838d0161136c565b909850965060608b013591508082111561146f57600080fd5b61147b8c838d0161136c565b909650945060808b013591508082111561149457600080fd5b506114a18b828c016113b8565b999c989b5096995094979396929594505050565b6001600160a01b0388811682528716602082015260e081016114da60408301886111df565b8560608301528460808301528360a083015282151560c083015298975050505050505050565b60008060008060008060a0878903121561151957600080fd5b6115228761126a565b95506115306020880161126a565b94506040870135935060608701359250608087013567ffffffffffffffff81111561155a57600080fd5b61156689828a016113b8565b979a9699509497509295939492505050565b6001600160a01b0394851681529290931660208301526040820152606081019190915260a06080820181905260009082015260c00190565b608081016115be82876111df565b84602083015283604083015282606083015295945050505050565b634e487b7160e01b600052601160045260246000fd5b600060018201611601576116016115d9565b5060010190565b634e487b7160e01b600052604160045260246000fd5b634e487b7160e01b600052603260045260246000fd5b80820281158282048414176103fd576103fd6115d9565b60008261166857634e487b7160e01b600052601260045260246000fd5b500490565b818103818111156103fd576103fd6115d9565b6001600160a01b038616815260a0810161169d60208301876111df565b846040830152836060830152826080830152969550505050505056fea264697066735822122014df20009c4766816e40ea979f88ceb55d964204f2d0ea14e7518fcd40585a7264736f6c63430008130033",
  "linkReferences": {},
  "deployedLinkReferences": {}
}